:100000000C94D5300C94F2300C94F2300C94F23005
:100010000C94F2300C94F2300C94F2300C94F230D8
:100020000C94F2300C94F2300C94A6310C94F23013
:100030000C94F2300C94F2300C94F2300C94F230B8
:100040000C94F2300C94F2300C94F2300C94F230A8
:100050000C94F2300C94F2300C94F2300C94F23098
:100060000C94F2300C94F23032013F0121013E0138
:100070003D01320139013801EEE0D4C8BDB2A89E7D
:10008000958D857E767069635E58534E4946423E33
:10009000120E090E10151509101110090EFF00019E
:1000A000010101010101010101010104FF000E1024
:1000B0000C0C13FF0202020205FF090E0E10110EB6
:1000C0000E1113111311100C0C10110E0E090E0E3F
:1000D00010110E0E11151315131110110E0E111310
:1000E000151513151311100C0C10131311131110F7
:1000F000110E0E1113151513151311100C0C1013EE
:100100001311131110110E0EFF08080C0408080833
:1001100004010101010808080808081008080C0477
:100120000808080808020204080808080804040867
:10013000080202040808080808080802020408085F
:100140000808040408080202040808080808080847
:1001500002020408080810FFFFFFFFFFFFFFFFFF78
:10016000FFFFFFFFFFFFFFFFFFFFFFFFFFFFFFFF9F
:10017000FFFFFFFFFFFFFFFFFFFFFFFFFFFFFFFF8F
:10018000FFFFFFFFFFFFFFFFFFFFFFFFFFFFFFFF7F
:10019000FFFFFFFFFFFFFFFFFFFFFFFFFFFFFFFF6F
:1001A000FFFFFFFFFFFFFFFFFFFFFFFFFFFFFFFF5F
:1001B000FFFFFFFFFFFFFFFFFFFFFFFFFFFFFFFF4F
:1001C000FFFFFFFFFFFFFFFFFFFFFFFFFFFFFFFF3F
:1001D000FFFFFFFFFFFFFFFFFFFFFFFFFFFFFFFF2F
:1001E000FFFFFFFFFFFFFFFFFFFFFFFFFFFFFFFF1F
:1001F000FFFFFFFFFFFFFFFFFFFFFFFFFFFFFFFF0F
:10020000FFFFFFFFFFFFFFFFFFFFFFFFFFFFFFFFFE
:10021000FFFFFFFFFFFBF9FFFFFFFFFFFFFFFFFFF8
:10022000FFFFFFFFFFFFFFFFFFFFFFFFFFFFFFFFDE
:10023000FFFFFFFFFFFFFFFFFFFFFFFFFFFFFFFFCE
:10024000FFFFFFFFFFFFFFFFFFFFFFFFFFFFFFFFBE
:10025000FFFFFFFFFFFFFFFFFFFFFFFFFFFFFFFFAE
:10026000FFFFFFFFFFFFFFFFFFFFFFFFFFFFFFFF9E
:10027000FFFFFFFFFFFFFFFFFFFFFFFFFFFFFFFF8E
:10028000FFFFFFFFFFFFFFFFFFFFFFFFFFFFFFFF7E
:10029000FFFFFFFFFFFFFFFFFFFFFFFFFFFFFFFF6E
:1002A000FFFFFFFFFFFFFFFFFFFFFFFFFFFFFFFF5E
:1002B000FFFFFFFFFDF4F4FAFFFFFFFFFFFFFFFF6B
:1002C000FFFFFFFFFDFFFFFFFFFFFFFFFFFFFFFF40
:1002D000FFFFFFFFFFFFFFFFFFFFFFFFFFFFFFFF2E
:1002E000FFFFFFFFFFFFFFFFFFFFFFFFFFFFFFFF1E
:1002F000FFFFFFFFFFFFFFFFFFFFFFFFFFFFFFFF0E
:10030000FFFFFFFFFFFFFFFFFFFFFFFFFFFFFFFFFD
:10031000FFFFFFFFFFFFFFFFFFFFFFFFFFFFFFFFED
:10032000FFFFFFFFFFFFFFFFFFFFFFFFFFFFFFFFDD
:10033000FFFFFFFFFFFFFFFFFFFFFFFFFFFFFFFFCD
:10034000FFFFFFFFFFFFFFFFFFFFFFFFFFFFFFFFBD
:10035000FFFFFFFFF6F6F8F5FBFFFFFFFFFFFFFFD4
:10036000FFFFFDF7F3FCFFFFFFFFFFFFFFFFFFFFB6
:10037000FFFFFFFFFFFFFFFFFFFFFFFFFFFFFFFF8D
:10038000FFFFFFFFFFFFFFFFFFFFFFFFFFFFFFFF7D
:10039000FFFFFFFFFFFFFFFFFFFFFFFFFFFFFFFF6D
:1003A000FFFFFFFFFFFFFFFFFFFFFFFFFFFFFFFF5D
:1003B000FFFFFFFFFFFFFFFFFFFFFFFFFFFFFFFF4D
:1003C000FFFFFFFFFFFFFFFFFFFFFFFFFFFFFFFF3D
:1003D000FFFFFFFFFFFFFFFFFFFFFFFFFFFFFFFF2D
:1003E000FFFFFFFFFFFFFFFFFFFFFFFFFFFFFFFF1D
:1003F000FFFFFFF9F5F8F8F7F4FAFFFFFFFFFFFF43
:10040000FEF9F5F6F5F9FFFFFFFFFFFFFFFFFFFF26
:10041000FFFFFFFFFFFFFFFFFFFFFFFFFFFFFFFFEC
:10042000FFFFFFFFFFFFFFFFFFFFFFFFFFFFFFFFDC
:10043000FFFFFFFFFFFFFFFFFFFFFFFFFFFFFFFFCC
:10044000FFFFFFFFFFFFFFFFFFFFFFFFFFFFFFFFBC
:10045000FFFFFFFFFFFFFFFFFFFFFFFFFFFFFFFFAC
:10046000FFFFFFFFFFFFFFFFFFFFFFFFFFFFFFFF9C
:10047000FFFFFFFFFFFFFFFFFFFFFFFFFFFFFFFF8C
:10048000FFFFFFFFFFFFFFFFFFFFFFFFFFFFFFFF7C
:10049000FFFFFCF5F8F8F8F8F7F4FAFFFFFFFFF9B3
:1004A000F5F5F8F8F7F7FFFFFFFFFFFFFFFFFFFF8E
:1004B000FFFFFFFFFFFFFFFFFFFFFFFFFFFFFFFF4C
:1004C000FFFFFFFFFFFFFFFFFFFFFFFFFFFFFFFF3C
:1004D000FFFFFFFFFFFFFFFFFFFFFFFFFFFFFFFF2C
:1004E000FFFFFFFFFFFFFFFFFFFFFFFFFFFFFFFF1C
:1004F000FFFFFFFFFFFFFFFFFFFFFFFFFFFFFFFF0C
:10050000FFFFFFFFFFFFFFFFFFFFFFFFFFFFFFFFFB
:10051000FFFFFFFFFFFFFFFFFFFFFFFFFFFFFFFFEB
:10052000FFFFFFFFFFFFFFFFFFFFFFFFFFFFFFFFDB
:10053000FFFEF5F7F8F8F8F8F8F7F5FAFFFFFFF522
:10054000F6F8F8F8F8F5FDFFFFFFFFFFFFFFFFFFEC
:10055000FFFFFFFFFFFFFFFFFFFFFFFFFFFFFFFFAB
:10056000FFFFFFFFFFFFFFFFFFFFFFFFFFFFFFFF9B
:10057000FFFFFFFFFFFFFFFFFFFFFFFFFFFFFFFF8B
:10058000FFFFFFFFFFFFFFFFFFFFFFFFFFFFFFFF7B
:10059000FFFFFFFFFFFFFFFFFFFFFFFFFFFFFFFF6B
:1005A000FFFFFFFFFFFFFFFFFFFFFFFFFFFFFFFF5B
:1005B000FFFFFFFFFFFFFFFFFFFFFFFFFFFFFFFF4B
:1005C000FFFFFFFFFFFFFFFFFFFFFFFFFFFFFFFF3B
:1005D000FFFDF5F6F8F8F8F8F8F8F8F5F9FFFFF987
:1005E000F5F8F8F8F8F5FAFFFFFFFFFFFFFFFFFF50
:1005F000FFFFFFFFFFFFFFFFFFFFFFFFFFFFFFFF0B
:10060000FFFFFFFFFFFFFFFFFFFFFFFFFFFFFFFFFA
:10061000FFDD774466EEFFFFFFFFFFFFFFFFFFFFF9
:10062000FFFFFFFFFFFFFFFFFFFFFFFFFFFFFFFFDA
:10063000FFFFFFFFFFFFFFFFFFFFFFFFFFFFFFFFCA
:10064000FFFFFFFFFFFFFFFFFFFFFFFFFFFFFFFFBA
:10065000FFFFFFFFFFFFFFFFFFFFFFFFFFFFFFFFAA
:10066000FFFFFFFFFFFFFFFFFFFFFFFFFFFFFFFF9A
:10067000FFFFFFF7F5F8F8F8F8F8F8F8F5FBFFFDDD
:10068000F5F8F8F8F8F6F7FFFFFFFFFFFFFFFFFFB1
:10069000FFFFFFFFFFFFFFFFFFFFFFFFFFFFFFFF6A
:1006A000FFFFFFFFFFFFFFFFFFFFFFFFFFFFFFFF5A
:1006B000FF773355112299FFFFCC997766667777DC
:1006C000667788AADDFFFFFFFFFFFFFFFFFFFFFF49
:1006D000FFFFFFFFFFFFFFFFFFFFFFFFFFFFFFFF2A
:1006E000FFFFFFFFFFFFFFFFFFFFFFFFFFFFFFFF1A
:1006F000FFFFFFFFFFFFFFFFFFFFFFFFFFFFFFFF0A
:10070000FFFFFFFFFFFFFFFFFFFFFFFFFFFFFFFFF9
:10071000FFFCFCFFFAF5F7F8F8F8F8F8F7F5FCFF3E
:10072000F7F7F8F8F8F8F5FFFFFFFFFFFFFFFFFF0F
:10073000FFFFFFFFFFFFFFFFFFFFFFFFFFFFFFFFC9
:10074000FFFFFFFFFFFFFFFFFFFFFFFFFFFFFFFFB9
:10075000BB3366FFEE44003344333355666666664A
:1007600066554433334477BBFFFFFFFFFFFFFF991C
:100770007788EEFFFFFFFFFFFFFFFFFFFFFFFFFF99
:10078000FFFFFFFFFFFFFFFFFFFFFFFFFFFFFFFF79
:10079000FFFFFFFFFFFFFFFFFFFFFFFFFFFFFFFF69
:1007A000FFFFFFFFFFFFFFFFFFFFFFFFFFFFFFFF59
:1007B000FFFCF3F6FDFBF6F7F8F8F8F8F8F7F5FEAE
:1007C000FAF5F8F8F8F8F4FCFFFFFFFFFFFFFFFF72
:1007D000FFFFFFFFFFFFFFFFFFFFFFFFFFFFFFFF29
:1007E000FFFFFFFFFFFFFFFFFFFFFFFFFFFFFFAA6E
:1007F0005533337788332255778899999999888822
:10080000999999998877443355BBFFFFFFFF992247
:10081000330044FFFFFFFFFFFFFFFFFFFFFFFFFF6E
:10082000FFFFFFFFFFFFFFFFFFFFFFFFFFFFFFFFD8
:10083000FFFFFFFFFFFFFFFFFFFFFFFFFFFFFFFFC8
:10084000FFFFFFFFFFFFFFFFFFFFFFFFFFFFFFFFB8
:10085000FFFFFDF5F3F9F9F6F7F8F8F8F8F8F7F611
:10086000FBF6F8F8F8F8F5F8FFFFFFFFFFFFFFFFD2
:10087000FFFFFFFFFFFFFFFFFFFFFFFFFFFFFFFF88
:10088000FFFFFFFFFFFFFFFFFFFFFFFFFFCC551143
:1008900033332200226688999988888888888888D6
:1008A0008888888888999988553355CCFF8833661D
:1008B000DD880077FFFFFFFFFFFFFFFFFFFFFFFF68
:1008C000FFFFFFFFFFFFFFFFFFFFFFFFFFFFFFFF38
:1008D000FFFFFFFFFFFFFFFFFFFFFFFFFFFFFFFF28
:1008E000FFFFFFFFFFFFFFFFFFFFFFFFFFFFFFFF18
:1008F000FFFFFFFFF9F5F7F5F2F6F9F8F8F8F8F76A
:10090000F6F4F7F8F8F8F7F6FFFFFFFFFFFFFFFF39
:10091000FFFFFFFFFFFFFFFFFFFFFFFFFFFFFFFFE7
:10092000FFFFFFFFFFFFFFFFFFFFFFFFBB4433227F
:1009300022223333669999888888888888888888AD
:10094000888888888888888899885533553344559D
:100950005544000088FFFFFFFFFFFFFFFFFFFFFF81
:10096000FFFFFFFFFFFFFFFFFFFFFFFFFFFFFFFF97
:10097000FFFFFFFFFFFFFFFFFFFFFFFFFFFFFFFF87
:10098000FFFFFFFFFFFFFFFFFFFFFFFFFFFFFFFF77
:10099000FFFFFFFFFFFBF6F9F5F2F5F8F8F8F8F8BE
:1009A000F7F2F5F9F8F8F8F6FEFFFFFFFFFFFFFF9B
:1009B000FFFFFFFFFFFFFFFFFFFFFFFFFFFFFFFF47
:1009C000FFFFFFFFFFFFFFFFFFFFFFCC3333334489
:1009D0007788999988888888888888888888888886
:1009E000888888888888888888997733333333441F
:1009F00077776622119AFFFFFFFFFFFFFFFFFFFFE0
:100A0000FFFFFFFFFFFFFFFFFFFFFFFFFFFFFFFFF6
:100A1000FFFFFFFFFFFFFFFFFFFFFFFFFFFFFFFFE6
:100A2000FFFFFFFFFFFFFFFFFFFFFFFFFFFFFFFFD6
:100A3000FFFFFFFFFFFFFCF7F9F7F5F5F8F8F8F80F
:100A4000F9F7F5F9F8F8F8F6FCFFFFFFFFFFFFFFF5
:100A5000FFFFFFFFFFFFFFFFFFFFFFFFFFFFFFFFA6
:100A6000FFFFFFFFFFFFFFFFFFFFFF33003377991B
:100A700099998888888888888888888877778888F6
:100A8000888888888888889988663333553333996D
:100A900099999988442299FFFFFFFFFFFFFFFFFF0D
:100AA000FFFFFFFFFFFFFFFFFFFFFFFFFFFFFFFF56
:100AB000FFFFFFFFFFFFFFFFFFFFFFFFFFFFFFFF46
:100AC000FFFFFFFFFFFFFFFFFFFFFFFFFFFFFFFF36
:100AD000FFFFFFFFFFFFFFFCF5F6F8F5F5F8F8F86C
:100AE000F8F8F5F7F8F8F8F6F9FFFFFFFFFFFFFF5A
:100AF000FFFFFFFFFFFFFFFFFFFFFFFFFFFFFFFF06
:100B0000FFFFFFFFFFFFFFFFFFFF7710557788888C
:100B10008877888888888888888888887777778998
:100B200088888888888888884433446666335599DD
:100B300088888899886622AAFFFFFFFFFFFFFFFFD2
:100B4000FFFFFFFFFFFFFFFFFFFFFFFFFFFFFFFFB5
:100B5000FFFFFFFFFFFFFFFFFFFFFFFFFFFFFFFFA5
:100B6000FFFFFFFFFFFFFFFFFFFFFFFFFFFFFFFF95
:100B7000FFFFFFFFFFFFFFFFFEF6F6F8F6F6F8F8BF
:100B8000F8F8F6F4F8F8F8F7F7FFFFFFFFFFFFFFBC
:100B9000FFFFFFFFFFFFFFFFFFFFFFFFFFFFFFFF65
:100BA000FFFFFFFFFFFFFFFFFFBB2255778899661E
:100BB000446688888888888888887788778888774E
:100BC0008899888888887777333355774444338881
:100BD0008888888888884422DDFFFFFFFFFFFFFFA9
:100BE000FFFFFFFFFFFFFFFFFFFFFFFFFFFFFFFF15
:100BF000FFFFFFFFFFFFFFFFFFFFFFFFFFFFFFFF05
:100C0000FFFFFFFFFFFFFFFFFFFFFFFFFFFFFFFFF4
:100C1000FFFFFFFFFFFFFFFFFFFFF9F5F7F6F5F816
:100C2000F8F8F8F5F6F8F8F8F5FDFFFFFFFFFFFF1D
:100C3000FFFFFFFFFFFFFFFFFFFFFFFFFFFFFFFFC4
:100C4000FFFFFFFFFFFFFFFFDD335577887733336B
:100C5000779988888888888899775588888888339C
:100C60003388998888887777553333555588447702
:100C7000998888888888773355FFFFFFFFFFFFFF3B
:100C8000FFFFFFFFFFFFFFFFFFFFFFFFFFFFFFFF74
:100C9000FFFFFFFFFFFFFFFFFFFFFFFFFFFFFFFF64
:100CA000FFFFFFFFFFFFFFFFFFFFFFFFFFFFFFFF54
:100CB000FFFFFFFFFFFFFFFFFFFFFFFBF5F7F6F56D
:100CC000F8F8F8F7F4F8F8F8F5FAFFFFFFFFFFFF80
:100CD000FFFFFFFFFFFFFFFFFFFFFFFFFFFFFFFF24
:100CE000FFFFFFFFFFFFFFFF443377886611338864
:100CF0009988888888889977552233998899773395
:100D00007733779988887777885533335599554461
:100D1000998888888888886611BBFFFFFFFFFFFFDE
:100D2000FFFFFFFFFFFFFFFFFFFFFFFFFFFFFFFFD3
:100D3000FFFFFFFFFFFFFFFFFFFFFFFFFFFFFFFFC3
:100D4000FFFFFFFFFFFFFFFFFFFFFFFFFFFFFFFFB3
:100D5000FFFFFFFFFFFFFFFFFFFFFFFFFCF5F7F6C1
:100D6000F5F8F8F9F5F6F8F8F6F7FFFFFFFFFFFFE3
:100D7000FFFFFFFFFFFFFFFFFFFFFFFFFFFFFFFF83
:100D8000FFFFFFFFFFFFFF77227788441144999907
:100D900088888888998844448877339988995555F4
:100DA000FF77227799888888998844224488772217
:100DB00088998888888888883355FFFFFFFFFFFF60
:100DC000FFFFFFFFFFFFFFFFFFFFFFFFFFFFFFFF33
:100DD000FFFFFFFFFFFFFFFFFFFFFFFFFFFFFFFF23
:100DE000FFFFFFFFFFFFFFFFFFFFFFFFFFFFFFFF13
:100DF000FFFFFFFFFFFFFFFFFFFFFFFFFFFDF5F618
:100E0000F6F5F8F8F7F4F8F8F8F5FFFFFFFFFFFF45
:100E1000FFFFFFFFFFFFFFFFFFFFFFFFFFFFFFFFE2
:100E2000FFFFFFFFFFFFBB226677331155999988BB
:100E300088889999553388DDFF7733998899446676
:100E4000FFEE772277998888889988442255662210
:100E500055998888888888997722BBFFFFFFFFFF14
:100E6000FFFFFFFFFFFFFFFFFFFFFFFFFFFFFFFF92
:100E7000FFFFFFFFFFFFFFFFFFFFFFFFFFFFFFFF82
:100E8000FFFFFFFFFFFFFFFFFFFFFFFFFFFFFFFF72
:100E9000FFFFFFFFFFFFFFFFFFFFFFFFFFFFFEF66C
:100EA000F5F5F6F9F8F4F7F8F8F5FCFFFFFFFFFFAA
:100EB000FFFFFFFFFFFFFFFFFFFFFFFFFFFFFFFF42
:100EC000FFFFFFFFFFEE33556622004499998888A3
:100ED0008899773355CCEEEEFF662299889933775F
:100EE000EEEEEE77228899888888997744224444E8
:100EF0003388888888888888993355FFFFFFFFFFEB
:100F0000FFFFFFFFFFFFFFFFFFFFFFFFFFFFFFFFF1
:100F1000FFFFFFFFFFFFFFFFFFFFFFFFFFFFFFFFE1
:100F2000FFFFFFFFFFFFFFFFFFFFFFFFFFFFFFFFD1
:100F3000FFFFFFFFFFFFFFFFFFFFFFFFFFFFFFFFC1
:100F4000F9F5F4F6F9F5F6F8F8F5F8FFFFFFFFFF0D
:100F5000FFFFFFFFFFFFFFFFFFFFFFFFFFFFFFFFA1
:100F6000FFFFFFFFFF773366221144999988888835
:100F700099663388EEEEEEEEFF7711998899229903
:100F8000EEDDEEEE6633889988888899773333559D
:100F90002266998888888888997711CCFFFFFFFF9F
:100FA000FFFFFFFFFFFFFFFFFFFFFFFFFFFFFFFF51
:100FB000FFFFFFFFFFFFFFFFFFFFFFFFFFFFFFFF41
:100FC000FFFFFFFFFFFFFFFFFFFFFFFFFFFFFFFF31
:100FD000FFFFFFFFFFFFFFFFFFFFFFFFFFFFFFFF21
:100FE000FFFCF5F3F6F7F5F8F8F7F6FFFFFFFFFF64
:100FF000FFFFFFFFFFFFFFFFFFFFFFFFFFFFFFFF01
:10100000FFFFFFFFCC22442211228899887799990B
:101010005522BBEEEEEEEEEEFF991188889922AADA
:10102000EEDDEEEEEE553399888888889966333385
:10103000113399888888888888993366FFFFFFFF75
:10104000FFFFFFFFFFFFFFFFFFFFFFFFFFFFFFFFB0
:10105000FFFFFFFFFFFFFFFFFFFFFFFFFFFFFFFFA0
:10106000FFFFFFFFFFFFFFFFFFFFFFFFFFFFFFFF90
:10107000FFFFFFFFFFFFFFFFFFFFFFFFFFFFFFFF80
:10108000FFFFFCF4F2FAF8FDFDFDF7FAFFFFFFFFAA
:10109000FFFFFFFFFFFFFFFFFFFFFFFFFFFFFFFF60
:1010A000FFFFFFFF77222222115599887788885504
:1010B00022AAFFEEEEEEEEEEFFBB007788882299C3
:1010C000EEEEEEEEEEDD335599888888888855225D
:1010D000112277998888888888996622DDFFFFFF2A
:1010E000FFFFFFFFFFFFFFFFFFFFFFFFFFFFFFFF10
:1010F000FFFFFFFFFFFFFFFFFFFFFFFFFFFFFFFF00
:10110000FFFFFFFFFFFFFFFFFFFFFFFFFFFFFFFFEF
:10111000FFFFFFFFFFFFFFFFFFFFFFFFFFFFFFFFDF
:10112000FFFFFFFDF4F4F7FCFEFEFDF6FEFFFFFF00
:10113000FFFFFFFFFFFFFFFFFFFFFFFFFFFFFFFFBF
:10114000FFFFFFDD221133333388997788996622B8
:10115000BBFFDDCCEEEEEEEEFFDD11558888229967
:10116000FFEEEEEEEEEE99228888888888888877F0
:1011700088555599888888888888883366FFFFFF56
:10118000FFFFFFFFFFFFFFFFFFFFFFFFFFFFFFFF6F
:10119000FFFFFFFFFFFFFFFFFFFFFFFFFFFFFFFF5F
:1011A000FFFFFFFFFFFFFFFFFFFFFFFFFFFFFFFF4F
:1011B000FFFFFFFFFFFFFFFFFFFFFFFFFFFFFFFF3F
:1011C000FFFFFFFFFFF6F1F9FEFEFFF9F8FFFFFF5B
:1011D000FFFFFFFFFFFFFFFFFFFFFFFFFFFFFFFF1F
:1011E000FFFFFF9900226622669988779977226629
:1011F00099553388EEEEEEEEEEFF443388883333B4
:1012000099DDFFFFEEEEEE4455998888888888883E
:1012100099773388888888888888996622CCFFFFE8
:10122000FFFFFFFFFFFFFFFFFFFFFFFFFFFFFFFFCE
:10123000FFFFFFFFFFFFFFFFFFFFFFFFFFFFFFFFBE
:10124000FFFFFFFFFFFFFFFFFFFFFFFFFFFFFFFFAE
:10125000FFFFFFFFFFFFFFFFFFFFFFFFFFFFFFFF9E
:10126000FFFFFFFFFFFFF7F7FFFEFEFEF7FBFFFFAD
:10127000FFFFFFFFFFFFFFFFFFFFFFFFFFFFFFFF7E
:10128000FFFFFF5500665533889988776622114421
:101290006699DDFFEEEEEEEEEEFF881177883333D0
:1012A000664455AAFFFFFFAA4499888888888888E1
:1012B0008899446699888888888888882288FFFF6A
:1012C000FFFFFFFFFFFFFFFFFFFFFFFFFFFFFFFF2E
:1012D000FFFFFFFFFFFFFFFFFFFFFFFFFFFFFFFF1E
:1012E000FFFFFFFFFFFFFFFFFFFFFFFFFFFFFFFF0E
:1012F000FFFFFFFFFFFFFFFFFFFFFFFFFFFFFFFFFE
:10130000FFFFFFFFFFFFFFF9FBFFFEFEFCF8FFFF03
:10131000FFFFFFFFFFFFFFFFFFFFFFFFFFFFFFFFDD
:10132000FFFFEE1122772255887733331111BBEE80
:10133000FFFFFFEEEEEEEEEEEEFFCC1155884455CA
:10134000FFDD88444488CCEE557799888888888862
:101350008899554499888888888888995555FFFFC9
:10136000FFFFFFFFFFFFFFFFFFFFFFFFFFFFFFFF8D
:10137000FFFFFFFFFFFFFFFFFFFFFFFFFFFFFFFF7D
:10138000FFFFFFFFFFFFFFFFFFFFFFFFFFFFFFFF6D
:10139000FFFFFFFFFFFFFFFFFFFFFFFFFFFFFFFF5D
:1013A000FFFFFFFFFFFFFFFEF6FDFEFEFFF9FBFF65
:1013B000FFFFFFFFFFFFFFFFFFFFFFFFFFFFFFFF3D
:1013C000FFFFBB0055553377886655662288FFEED0
:1013D000EEEEEEEEEEEEEEEEEEEEFF66227755224C
:1013E000EEFFFFEEAA6644663344999988888888A0
:1013F0008888883388888888888888887722BBFF8F
:10140000FFFFFFFFFFFFFFFFFFFFFFFFFFFFFFFFEC
:10141000FFFFFFFFFFFFFFFFFFFFFFFFFFFFFFFFDC
:10142000FFFFFFFFFFFFFFFFFFFFFFFFFFFFFFFFCC
:10143000FFFFFFFFFFFFFFFFFFFFFFFFFFFFFFFFBC
:10144000FFFFFFFFFFFFFFFFFAF7FEFEFEFCF7FFC7
:10145000FFFFFFFFFFFFFFFFFFFFFFFFFFFFFFFF9C
:10146000FFFF9911883355779977884433EEFFEE63
:10147000EEEEEEEEEEEEEEEEEEEEFFDD2255661156
:10148000CCFFEEEEFFFFDD995511447799888888EF
:10149000888899226699888888888888883355FF43
:1014A000FFFFFFFFFFFFFFFFFFFFFFFFFFFFFFFF4C
:1014B000FFFFFFFFFFFFFFFFFFFFFFFFFFFFFFFF3C
:1014C000FFFFFFFFFFFFFFFFFFFFFFFFFFFFFFFF2C
:1014D000FFFFFFFFFFFFFFFFFFFFFFFFFFFFFFFF1C
:1014E000FFFFFFFFFFFFFFFFFFF8FAFFFEFFF8FA25
:1014F000FFFFFFFFFFFFFFFFFFFFFFFFFFFFFFFFFC
:10150000FFFF6655772266778877771177FFEEEED3
:10151000EEEEEEEEEEEEEEEEEEEEEEFF7722771171
:10152000AAFFEEEEEEEEFFFFEE33334488888888A4
:10153000888899224499888877888888886611BB2A
:10154000FFFFFFFFFFFFFFFFFFFFFFFFFFFFFFFFAB
:10155000FFFFFFFFFFFFFFFFFFFFFFFFFFFFFFFF9B
:10156000FFFFFFFFFFFFFFFFFFFFFFFFFFFFFFFF8B
:10157000FFFFFFFFFFFFFFFFFFFFFFFFFFFFFFFF7B
:10158000FFFFFFFFFFFFFFFFFFFEF7FCFEFEFCF784
:10159000FFFFFFFFFFFFFFFFFFFFFFFFFFFFFFFF5B
:1015A000FFDD33885522778888776611CCFFFFFFEF
:1015B000FFFFFFFFEEEEEEEEEEEEEEFFEE33553305
:1015C00088FFEEEEEEEEEEEEFF664499998877889E
:1015D00088888822228888887788888888883366DF
:1015E000FFFFFFFFFFFFFFFFFFFFFFFFFFFFFFFF0B
:1015F000FFFFFFFFFFFFFFFFFFFFFFFFFFFFFFFFFB
:10160000FFFFFFFFFFFFFFFFFFFFFFFFFFFFFFFFEA
:10161000FFFFFFFFFFFFFFFFFFFFFFFFFFFFFFFFDA
:10162000FFFFFFFFFFFFFFFFFFFFFCF7FEFEFFF9DD
:10163000F9FFFFFFFFFFFFFFFFFFFFFFFFFFFFFFC0
:10164000FF7744AA3344778877775533CCCCAA996F
:10165000887766AAEEEEEEEEEEEEEEEEFFBB22220D
:1016600055DDEEFFFFFFFFFFFF99229988887788FD
:101670008899882211779988777788888888552271
:10168000DDFFFFFFFFFFFFFFFFFFFFFFFFFFFFFF8C
:10169000FFFFFFFFFFFFFFFFFFFFFFFFFFFFFFFF5A
:1016A000FFFFFFFFFFFFFFFFFFFFFFFFFFFFFFFF4A
:1016B000FFFFFFFFFFFFFFFFFFFFFFFFFFFFFFFF3A
:1016C000FFFFFFFFFFFFFFFFFFFFFFF8F9FFFEFD3A
:1016D000F6FEFFFFFFFFFFFFFFFFFFFFFFFFFFFF24
:1016E000EE337799225577887777331122110000EE
:1016F00000000066EEEEEEEEEEEEEEEEEEFF7700B0
:1017000011223344667799BBDDBB2288998877889C
:1017100088997722115599888877888888887722D0
:1017200077FFFFFFFFFFFFFFFFFFFFFFFFFFFFFF51
:10173000FFFFFFFFFFFFFFFFFFFFFFFFFFFFFFFFB9
:10174000FFFFFFFFFFFFFFFFFFFFFFFFFFFFFFFFA9
:10175000FFFFFFFFFFFFFFFFFFFFFFFFFFFFFFFF99
:10176000FFFFFFFFFFFFFFFFFFFFFFFEF6FCFEFF97
:10177000F8F9FFFFFFFFFFFFFFFFFFFFFFFFFFFF86
:10178000774499882266777777773344441111003C
:1017900000001199EEEEEEEEEEEEEEEEEEEE7711CB
:1017A000111111222222222233662266998866882C
:1017B00088885533663399888877778888887755FD
:1017C00033EEFFFFFFFFFFFFFFFFFFFFFFFFFFFF06
:1017D000FFFFFFFFFFFFFFFFFFFFFFFFFFFFFFFF19
:1017E000FFFFFFFFFFFFFFFFFFFFFFFFFFFFFFFF09
:1017F000FFFFFFFFFFFFFFFFFFFFFFFFFFFFFFFFF9
:10180000FFFFFFFFFFFFFFFFFFFFFFFFFAF8FFFEF5
:10181000FCF6FFFFFFFFFFFFFFFFFFFFFFFFFFDD06
:101820003377997722667777776611222233557757
:101830008899BBEEEEEEEEEEEEEEEEEEEECC8866C6
:101840003322110011223344559933559988668803
:1018500088885522331177998877778888888877A0
:101860002288FFFFFFFFFFFFFFFFFFFFFFFFFFFFDC
:10187000FFFFFFFFFFFFFFFFFFFFFFFFFFFFFFFF78
:10188000FFFFFFFFFFFFFFFFFFFFFFFFFFFFFFFF68
:10189000FFFFFFFFFFFFFFFFFFFFFFFFFFFFFFFF58
:1018A000FFFFFFFFFFFFFFFFFFFFFFFFFFF9FDFE51
:1018B000FDF6FBFFFFFFFFFFFFFFFFFFFFFFFF88BE
:1018C0003399996622667777775533AACCEEFFFF76
:1018D000FFFFFFEEEEEEEEEEEEEEEEEEEEEEFFFFD3
:1018E000EEDDBB9977664433337733339988668866
:1018F0008877440011117799888866888888887766
:101900004433FFFFFFFFFFFFFFFFFFFFFFFFFFFF6E
:10191000FFFFFFFFFFFFFFFFFFFFFFFFFFFFFFFFD7
:10192000FFFFFFFFFFFFFFFFFFFFFFFFFFFFFFFFC7
:10193000FFFFFFFFFFFFFFFFFFFFFFFFFFFFFFFFB7
:10194000FFFFFFFFFFFFFFFFFFFFFFFFFFFAF7FCB7
:10195000FCFAF7FFFFFFFFFFFFFFFFFFFFFFEE3384
:101960007799885511667777775566FFEEEEEEEE3C
:10197000EEEEEEEEEEEEEEEEEEEEEEEEEEEEEEEE87
:10198000EEFFFFFFFFFFFFEEDDFF7722997766880E
:10199000887722001111559988886677888888771A
:1019A0006622AAFFFFFFFFFFFFFFFFFFFFFFFFFF12
:1019B000FFFFFFFFFFFFFFFFFFFFFFFFFFFFFFFF37
:1019C000FFFFFFFFFFFFFFFFFFFFFFFFFFFFFFFF27
:1019D000FFFFFFFFFFFFFFFFFFFFFFFFFFFFFFFF17
:1019E000FFFFFFFFFFFFFFFFFFFFFFFFFFFFF6FA15
:1019F000FCFCF6FCFFFFFFFFFFFFFFFFFFFF99333B
:101A000099888855116677666666AAEEEEDDEEEE79
:101A1000EEEEEEEEEEEEEEEEEEEEEEEEEEEEEEEEE6
:101A2000EEEEEEEEDDDDEEEEEEFF771199776688F5
:101A300077551111111144998888776688888888AC
:101A4000774444FFFFFFFFFFFFFFFFFFFFFFFFFFA4
:101A5000FFFFFFFFFFFFFFFFFFFFFFFFFFFFFFFF96
:101A6000FFFFFFFFFFFFFFFFFFFFFFFFFFFFFFFF86
:101A7000FFFFFFFFFFFFFFFFFFFFFFFFFFFFFFFF76
:101A8000FFFFFFFFFFFFFFFFFFFFFFFFFFFFFAF773
:101A9000FDFCF9FAFFFFFFFFFFFFFFFFFFFF4466BA
:101AA000998877661166776677AADDEEDDDDDDDD84
:101AB000EEEEEEEEEEEEEEEEEEEEEEEEEEEEEEEE46
:101AC000EEEEDDCCDDDDEEEEEEFF770088776677BB
:101AD0007733111111112288888877668888888861
:101AE000776622CCFFFFFFFFFFFFFFFFFFFFFFFF37
:101AF000FFFFFFFFFFFFFFFFFFFFFFFFFFFFFFFFF6
:101B0000FFFFFFFFFFFFFFFFFFFFFFFFFFFFFFFFE5
:101B1000FFFFFFFFFFFFFFFFFFFFFFFFFFFFFFFFD5
:101B2000FFFFFFFFFFFFFFFFFFFFFFFFFFFFFFF6CE
:101B3000FBFCFBF9FFFFFFFFFFFFFFFFFF9933995E
:101B40008888676611557766AA9999DDDDDDDDCC59
:101B5000EEEEEEEEEEEEEEEEEEEEEEEEEEEEEEEEA5
:101B6000EECCDDDDEEDDDDDDDDEE7700777777775E
:101B70005511221111111177998888667788888804
:101B800088773366FFFFFFFFFFFFFFFFFFFFFFFFC9
:101B9000FFFFFFFFFFFFFFFFFFFFFFFFFFFFFFFF55
:101BA000FFFFFFFFFFFFFFFFFFFFFFFFFFFFFFFF45
:101BB000FFFFFFFFFFFFFFFFFFFFFFFFFFFFFFFF35
:101BC000FFFFFFFFFFFFFFFFFFFFFFFFFFFFFFF92B
:101BD000F7FDFCF6FDFFFFFFFFFFFFFFFF456699E6
:101BE0008877667722447766CC7798DDDDDDDDCCBB
:101BF000EEEEEEEEEEEEEEEEEEEEEEEEEEEEEEEE05
:101C0000DDCCEEEEDDCCCCCCCCEE66006677777723
:101C100022222200111100559988887766888888C9
:101C200088775522DDFFFFFFFFFFFFFFFFFFFFFF6C
:101C3000FFFFFFFFFFFFFFFFFFFFFFFFFFFFFFFFB4
:101C4000FFFFFFFFFFFFFFFFFFFFFFFFFFFFFFFFA4
:101C5000FFFFFFFFFFFFFFFFFFFFFFFFFFFFFFFF94
:101C6000FFFFFFFFFFFFFFFFFFFFFFFFFFFFFFFE85
:101C7000F6FCFDF8FAFFFDF9F6F4F6FADC44888884
:101C80008877667733337766AA9999DDCCCCDDCC3B
:101C9000EEEEEEEEEEEEEEEEEEEEEEEEEEEEEEEE64
:101CA000DDDDEEDDCCDDDDDDDDEE9911667777443F
:101CB0001122221111221144998888776688888818
:101CC0008877772288FFFFFFFFFFFFFFFFFFFFFFFF
:101CD000FFFFFFFFFFFFFFFFFFFFFFFFFFFFFFFF14
:101CE000FFFFFFFFFFFFFFFFFFFFFFFFFFFFFFFF04
:101CF000FFFFFFFFFFFFFFFFFFFFFFFFFFFFFFFFF4
:101D0000FFFFFFFFFFFFFFFFFFFFFFFFFFFFFFFFE3
:101D1000F8F9FDF9F5F7F2F1F1F1F1F18255998950
:101D2000886677774422666677AABBEEEEEEDDCC56
:101D3000EEEEEEEEEEEEEEEEEEEEEEEEEEEEEEEEC3
:101D4000DDDDEEDDCCDDDDCCEEEEAA1177773311F3
:101D50002222222222444433998888776677888811
:101D60008888774444FFFFFFFFFFFFFFFFFFFFFF6F
:101D7000FFFFFFFFFFFFFFFFFFFFFFFFFFFFFFFF73
:101D8000FFFFFFFFFFFFFFFFFFFFFFFFFFFFFFFF63
:101D9000FFFFFFFFFFFFFFFFFFFFFFFFFFFFFFFF53
:101DA000FFFFFFFFFFFFFFFFFFFFFFFFFFFFFFFF43
:101DB000FBF6F8F7F4F1F2F2F2F2F2E23172868910
:101DC000776677776611557766BBDDDDDDDDDDCCC7
:101DD000EEEEEEFFFFFFFFFFFFFFFFFFFFFFEEEE68
:101DE000DDDDEEDDCCCCCCCCDDEE9911442211331F
:101DF0005533111111225533778888776677888893
:101E00008888776633DDFFFFFFFFFFFFFFFFFFFFDF
:101E1000FFFFFFFFFFFFFFFFFFFFFFFFFFFFFFFFD2
:101E2000FFFFFFFFFFFFFFFFFFFFFFFFFFFFFFFFC2
:101E3000FFFFFFFFFFFFFFFFFFFFFFFFFFFFFFFFB2
:101E4000FFFFFFFFFFFFFFFFFFFFFFFFFFFFFFFFA2
:101E5000FFF4F8F9F2F2F2F2F2F2F29232928285A3
:101E60007767777777223377775599EEDDDDDDEE8B
:101E7000EEFFEE99665555555566667799CCEEEEB0
:101E8000DDCCEEEEDDDDDDDDEEEE7700113322445C
:101E9000441122334455AA44669988886677888815
:101EA000888877773388FFFFFFFFFFFFFFFFFFFF83
:101EB000FFFFFFFFFFFFFFFFFFFFFFFFFFFFFFFF32
:101EC000FFFFFFFFFFFFFFFFFFFFFFFFFFFFFFFF22
:101ED000FFFFFFFFFFFFFFFFFFFFFFFFFFFFFFFF12
:101EE000FFFFFFFFFFFFFFFFFFFFFFFFFFFFFFFF02
:101EF000FFF7FDF4F1F2F2F2F2F2F2426292827135
:101F00006376777777441166773322EEEEEEEEEE66
:101F1000EEFF7766CCBBAAAA999999888844AAEE65
:101F2000DDCCDDDDDDEEEEEEEECC663366553388DE
:101F30004422DDFFFFFFFF55449988887766888833
:101F4000888888775533EEFFFFFFFFFFFFFFFFFF15
:101F5000FFFFFFFFFFFFFFFFFFFFFFFFFFFFFFFF91
:101F6000FFFFFFFFFFFFFFFFFFFFFFFFFFFFFFFF81
:101F7000FFFFFFFFFFFFFFFFFFFFFFFFFFFFFFFF71
:101F8000FFFFFFFFFFFFFFFFFFFFFFFFFFFFFFFF61
:101F9000FFF9F4F1F2F2F2F2F2F2A23282828272EC
:101FA000627274767766114488332288FFEEEEEE13
:101FB000EEFF6666EEFFFFFFFFEECCEEFF77AAFFB7
:101FC000EEDDDDCCCCCCCCDDCC77777777225577C6
:101FD0001199FFFFFFFFFF7733998888776677882D
:101FE000888888776622AAFFFFFFFFFFFFFFFFFFB9
:101FF000FFFFFFFFFFFFFFFFFFFFFFFFFFFFFFFFF1
:10200000FFFFFFFFFFFFFFFFFFFFFFFFFFFFFFFFE0
:10201000FFFFFFFFFFFFFFFFFFFFFFFFFFFFFFFFD0
:10202000FFFFFFFFFFFFFFFFFFFFFFFFFFFFFFFFC0
:10203000FFFCF1F2F2F2F2F2F2F25252928282627A
:10204000627271727577332277335566AAFFEEEEAE
:10205000EEFFDD776655555555556633BB66CCFFAB
:10206000EEEEEEDDDDDDDDEE774488774433773369
:1020700065FFFFFFFFFFFF992299888877667788C1
:1020800088888888774455FFFFFFFFFFFFFFFFFF29
:10209000FFFFFFFFFFFFFFFFFFFFFFFFFFFFFFFF50
:1020A000FFFFFFFFFFFFFFFFFFFFFFFFFFFFFFFF40
:1020B000FFFFFFFFFFFFFFFFFFFFFFFFFFFFFFFF30
:1020C000FFFFFFFFFFFFFFFFFFFFFFFFFFFFFFFF20
:1020D000FFFAF1F2F2F2F2F2F2C22282828272622C
:1020E00072727262627455115544119966BBFFFF9A
:1020F000EEEEFFFFFFEEDDDDEEFFFF668888BBFF43
:10210000EEEEEEEEEEEEEEEE4466775522664433EA
:10211000EEFFFFFFFFFFFFAA118888888866778897
:1021200088888888776622CCFFFFFFFFFFFFFFFFCC
:10213000FFFFFFFFFFFFFFFFFFFFFFFFFFFFFFFFAF
:10214000FFFFFFFFFFFFFFFFFFFFFFFFFFFFFFFF9F
:10215000FFFFFFFFFFFFFFFFFFFFFFFFFFFFFFFF8F
:10216000FFFFFFFFFFFFFFFFFFFFFFFFFFFFFFFF7F
:10217000FFF6F1F2F2F2F2F2F272429282827262AF
:10218000726272727271734322332233221199EE9A
:10219000FFEEEEEEEEEEEEEEEEEEFF995555CCEEE6
:1021A000EEEEEEEEEEEEEEBB44775533553322CC39
:1021B000FFFFFFFFFFFFFFCC1177998888666688D5
:1021C0008888888877772288FFFFFFFFFFFFFFFF5F
:1021D000FFFFFFFFFFFFFFFFFFFFFFFFFFFFFFFF0F
:1021E000FFFFFFFFFFFFFFFFFFFFFFFFFFFFFFFFFF
:1021F000FFFFFFFFFFFFFFFFFFFFFFFFFFFFFFFFEF
:10220000FFFFFFFFFFFFFFFFFFFFFFFFFFFFFFFFDE
:10221000FFF3F2F2F2F2F2F2E23272928282627230
:1022200072727272727272622112561200113377D8
:10223000CCFFEEEEEEEEEEEEEEEEEEEECCDDFFEEF1
:10224000EEEEEEEEEEEEFF66556633552222CCFF43
:10225000FFFFFFFFFFFFFFDD116699888877668823
:102260008888888888775533FFFFFFFFFFFFFFFFCF
:10227000FFFFFFFFFFFFFFFFFFFFFFFFFFFFFFFF6E
:10228000FFFFFFFFFFFFFFFFFFFFFFFFFFFFFFFF5E
:10229000FFFFFFFFFFFFFFFFFFFFFFFFFFFFFFFF4E
:1022A000FFFFFFFFFFFFFFFFFFFFFFFFFFFFFFFF3E
:1022B000FEF2F2F2F2F2F2F29232928282726272E2
:1022C00072727272627272723111765523001177D6
:1022D0008888DDFFFFEEEEEEEEEEEEEEEEEEEEEED9
:1022E000EEEEEEEEEECB77335522554422CCFFFFD7
:1022F000FFFFFFFFFFFFFFFF225599888877667772
:102300008888888888667722AAFFFFFFFFFFFFFF83
:10231000FFFFFFFFFFFFFFFFFFFFFFFFFFFFFFFFCD
:10232000FFFFFFFFFFFFFFFFFFFFFFFFFFFFFFFFBD
:10233000FFFFFFFFFFFFFFFFFFFFFFFFFFFFFFFFAD
:10234000FFFFFFFFFFFFFFFFFFFFFFFFFFFFFFFF9D
:10235000FDF1F2F2F2F2F2F2426292828272627263
:1023600072727272727272722232E3B3441200AAF3
:10237000FF996688DDFFFFFFEEEEEEEEEEEEEEFF7C
:10238000FFFFCC99665511332233884444FFFFFF89
:10239000FFFFFFFFFFFFFFFF3344998888776677D1
:1023A000888888888877773355FFFFFFFFFFFFFF16
:1023B000FFFFFFFFFFFFFFFFFFFFFFFFFFFFFFFF2D
:1023C000FFFFFFFFFFFFFFFFFFFFFFFFFFFFFFFF1D
:1023D000FFFFFFFFFFFFFFFFFFFFFFFFFFFFFFFF0D
:1023E000FFFFFFFFFFFFFFFFFFFFFFFFFFFFFFFFFD
:1023F000FEF2F1F2F2F2F2C2228282828262627212
:1024000072727272726272721282F2F1A13288FF7B
:10241000FFFFEE88666699DDFFFFFFFFFFFFEEBB63
:1024200088441111AA991144BB44446622AAFFFFB3
:10243000FFFFFFFFFFFFFFFF443399888877667730
:10244000888888888877776622DDFFFFFFFFFFFF97
:10245000FFFFFFFFFFFFFFFFFFFFFFFFFFFFFFFF8C
:10246000FFFFFFFFFFFFFFFFFFFFFFFFFFFFFFFF7C
:10247000FFFFFFFFFFFFFFFFFFFFFFFFFFFFFFFF6C
:10248000FFFFFFFFFFFFFFFFFFFFFFFFFFFFFFFF5C
:10249000FFF4F1F2F2F2F27242928282726272728E
:1024A00072727272727272720282F2F2F2E1F4FB72
:1024B000FFFFFFFFFFBB8877778899996655333315
:1024C00022005555442277FFFFCD44332244FFFFBD
:1024D000FFFFFFFFFFFFFFFF4422998888776666B2
:1024E00088888888888866772299FFFFFFFFFFFF2A
:1024F000FFFFFFFFFFFFFFFFFFFFFFFFFFFFFFFFEC
:10250000FFFFFFFFFFFFFFFFFFFFFFFFFFFFFFFFDB
:10251000FFFFFFFFFFFFFFFFFFFFFFFFFFFFFFFFCB
:10252000FFFFFFFFFFFFFFFFFFFFFFFFFFFFFFFFBB
:10253000FFF7F0F2F2F2E23272928282726272720B
:1025400072726272727272620292F2F2F3F3F6F2D5
:10255000F3F8FCFFFFFFEECC5500002244667777CE
:10256000332299661122CCFFFFFFFFAA5511AAFF63
:10257000FFFFFFFFFFFFFFFF552288888888666600
:1025800088888888888877774444FFFFFFFFFFFFAB
:10259000FFFFFFFFFFFFFFFFFFFFFFFFFFFFFFFF4B
:1025A000FFFFFFFFFFFFFFFFFFFFFFFFFFFFFFFF3B
:1025B000FFFFFFFFFFFFFFFFFFFFFFFFFFFFFFFF2B
:1025C000FFFFFFFFFFFFFFFFFFFFFFFFFFFFFFFF1B
:1025D000FFFCF1F1F2F292329282828262626272C6
:1025E000727272727272726202A2F2F2F3F6FFFDFE
:1025F000F9F6F5E69778330010336699AA9977448F
:102600001155553399AA55BBFFFFFFFFFFCCDDFFE6
:10261000FFFFFFFFFFFFFFFF66118888888866665F
:1026200077888888888877766622BBFFFFFFFFFF60
:10263000FFFFFFFFFFFFFFFFFFFFFFFFFFFFFFFFAA
:10264000FFFFFFFFFFFFFFFFFFFFFFFFFFFFFFFF9A
:10265000FFFFFFFFFFFFFFFFFFFFFFFFFFFFFFFF8A
:10266000FFFFFFFFFFFFFFFFFFFFFFFFFFFFFFFF7A
:10267000FFFFF7F1F2F25262A292928272727272CC
:10268000727272627272725202B2F2F3F3F8FFFE69
:10269000FEFFA9656656441166AAAA888877444455
:1026A000333344CCFFFFBB8877DDFFFFFFFFFFFF25
:1026B000FFFFFFFFFFFFFFFF7711888888886666AE
:1026C0007788888888888866773377FFFFFFFFFFE1
:1026D000FFFFFFFFFFFFFFFFFFFFFFFFFFFFFFFF0A
:1026E000FFFFFFFFFFFFFFFFFFFFFFFFFFFFFFFFFA
:1026F000FFFFFFFFFFFFFFFFFFFFFFFFFFFFFFFFEA
:10270000FFFFFFFFFFFFFFFFFFFFFFFFFFFFFFFFD9
:10271000FFFFFE9351421232525262626262627253
:10272000727272727272726202C2F1F3F3F9FEFD9A
:10273000FEAA55895555773355AA99887766337718
:102740003311AAFFEEEEFFFF9933DDFFFFFFFFFF1E
:10275000FFFFFFFFFFFFFFFF77017799888877660C
:102760007788888888888866775533FFFFFFFFFF62
:10277000FFFFFFFFFFFFFFFFFFFFFFFFFFFFFFFF69
:10278000FFFFFFFFFFFFFFFFFFFFFFFFFFFFFFFF59
:10279000FFFFFFFFFFFFFFFFFFFFFFFFFFFFFFFF49
:1027A000FFFFFFFFFFFFFFFFFFFFFFFFFFFFFFFF39
:1027B000FFFF7F0B12111111111111112121212184
:1027C00021323232424242321282C1B3A3896E4E6A
:1027D0005E25664422555533339999997733559937
:1027E0002255FFEEEEEEEEFFFF7755FFFFFFFFFFF6
:1027F000FFFFFFFFFFFFFFFF77007799888877666D
:102800007788888888888877666611BBFFFFFFFF16
:10281000FFFFFFFFFFFFFFFFFFFFFFFFFFFFFFFFC8
:10282000FFFFFFFFFFFFFFFFFFFFFFFFFFFFFFFFB8
:10283000FFFFFFFFFFFFFFFFFFFFFFFFFFFFFFFFA8
:10284000FFFFFFFFFFFFFFFFFFFFFFFFFFFFFFFF98
:10285000FFAF1F2F2D2424242525242424232323C4
:1028600022222211111111111212111413496FAEEB
:10287000DE6533337788774411778877553399AAA3
:102880002288FFEEEEEEFFCCEEEE33BBFFFFFFFF44
:10289000FFFFFFFFFFFFFFFF8800779988887766BB
:1028A000668888888877997766773366FFFFFFFFA9
:1028B000FFFFFFFFFFFFFFFFFFFFFFFFFFFFFFFF28
:1028C000FFFFFFFFFFFFFFFFFFFFFFFFFFFFFFFF18
:1028D000FFFFFFFFFFFFFFFFFFFFFFFFFFFFFFFF08
:1028E000FFFFFFFFFFFFFFFFFFFFFFFFFFFFFFFFF8
:1028F000EF3F1F2F2E25292929292727272727277B
:1029000027272626252524232122313191F4FBED8A
:10291000883322668899AA6622559966337799AAE0
:102920003377FFEEFFEECC8899FF7755FFFFFFFF6F
:10293000FFFFFFFFFFFFFFFF88007799888877661A
:10294000668888888877888866775533FFFFFFFF19
:10295000FFFFFFFFFFFFFFFFFFFFFFFFFFFFFFFF87
:10296000FFFFFFFFFFFFFFFFFFFFFFFFFFFFFFFF77
:10297000FFFFFFFFFFFFFFFFFFFFFFFFFFFFFFFF67
:10298000FFFFFFFFFFFFFFFFFFFFFFFFFFFFFFDF77
:102990005F1F2F2F29242928282826272726272785
:1029A0002727272727272725212A2C3977F6E5628D
:1029B000336633545577664455339933559999AAFC
:1029C0004455FFEEDD99228877BBBB22EEFFFFFF67
:1029D000FFFFFFFFFFFFFFFF88006699888877668B
:1029E000667788888877778877667722CCFFFFFFBD
:1029F000FFFFFFFFFFFFFFFFFFFFFFFFFFFFFFFFE7
:102A0000FFFFFFFFFFFFFFFFFFFFFFFFFFFFFFFFD6
:102A1000FFFFFFFFFFFFFFFFFFFFFFFFFFFFFFFFC6
:102A2000FFFFFFFFFFFFFFFFFFFFFFFFFFFFEF8F36
:102A30003F1F2F2F25262928282726262727262708
:102A40002727272727272725202B2F4F5FEF79348C
:102A50009999335444552255883344339999999917
:102A60007722DDEE88993399BBAAEE22AAFFFFFFF9
:102A7000FFFFFFFFFFFFFFFF7700669988888866EA
:102A800066778888888877997766773399FFFFFF1C
:102A9000FFFFFFFFFFFFFFFFFFFFFFFFFFFFFFFF46
:102AA000FFFFFFFFFFFFFFFFFFFFFFFFFFFFFFFF36
:102AB000FFFFFFFFFFFFFFFFFFFFFFFFFFFFFFFF26
:102AC000FFFFFFFFFFFFFFFFFFFFFFFFFFFF8FAFD6
:102AD0004F2F2F2D2228282828272627272727274A
:102AE0002727272727262725202B1F4F4F49339994
:102AF000AA444477778844889933116699999999BB
:102B0000993366EE66EECCFFFFDD661166FFFFFFD0
:102B1000FFFFFFFFFFFFFFFF770066998888886649
:102B200077778888888877888866775555FFFFFF8C
:102B3000FFFFFFFFFFFFFFFFFFFFFFFFFFFFFFFFA5
:102B4000FFFFFFFFFFFFFFFFFFFFFFFFFFFFFFFF95
:102B5000FFFFFFFFFFFFFFFFFFFFFFFFFFFFFFFF85
:102B6000FFFFFFFFFFFFFFFFFFFFFFFFFFFF8FDF05
:102B70003F2F2F29232928282826262727272727BC
:102B80002727272727262725202A2F2F4D2377AAD7
:102B90007732776677994488AA55339999999999A4
:102BA0009977228844DDEEBB7722444433FFFFFF50
:102BB000FFFFFFFFFFFFFFFF6600668888778877CB
:102BC00077668888888877778866776622EEFFFF41
:102BD000FFFFFFFFFFFFFFFFFFFFFFFFFFFFFFFF05
:102BE000FFFFFFFFFFFFFFFFFFFFFFFFFFFFFFFFF5
:102BF000FFFFFFFFFFFFFFFFFFFFFFFFFFFFFFFFE5
:102C0000FFFFFFFFFFFFFFFFFFFFFFFFFFFF7F9FB4
:102C10002F2F2F252529282828262727272727272C
:102C20002727272727272725202A2F1F1565AA9919
:102C300033558877889944889988778888998899BE
:102C400099AA4422115544110000332211CCFFFFF0
:102C5000FFFFFFFFFFFFFFFF66006688887777773B
:102C60008877888888887777887766772299FFFFC2
:102C7000FFFFFFFFFFFFFFFFFFFFFFFFFFFFFFFF64
:102C8000FFFFFFFFFFFFFFFFFFFFFFFFFFFFFFFF54
:102C9000FFFFFFFFFFFFFFFFFFFFFFFFFFFFFFFF44
:102CA000FFFFFFFFFFFFFFFFFFFFFFFFFFFFDF8FC4
:102CB0002F2F2D2328282828272627262727272790
:102CC000272727272727272520292F1A4399AA6650
:102CD000228877889988449999AABB7788887766EB
:102CE0008899661122444422000011220099FFFFB6
:102CF000FFFFFFFFFFFFFFFF55116688887777779B
:102D00008877778888888866887766774455FFFF54
:102D1000FFFFFFFFFFFFFFFFFFFFFFFFFFFFFFFFC3
:102D2000FFFFFFFFFFFFFFFFFFFFFFFFFFFFFFFFB3
:102D3000FFFFFFFFFFFFFFFFFFFFFFFFFFFFFFFFA3
:102D4000FFFFFFFFFFFFFFFFFFFFFFFFFFFFFFBFD3
:102D50002F2F2923292828282726272727272627F2
:102D6000272727272727272520191F1487AA9933C4
:102D700055998888997733999999AA888888776628
:102D80007788661111222211111111221177FFFF8C
:102D9000FFFFFFFFFFFFFFFF44117788887766770B
:102DA0008888778888888877888866775522EEFFB4
:102DB000FFFFFFFFFFFFFFFFFFFFFFFFFFFFFFFF23
:102DC000FFFFFFFFFFFFFFFFFFFFFFFFFFFFFFFF13
:102DD000FFFFFFFFFFFFFFFFFFFFFFFFFFFFFFFF03
:102DE000FFFFFFFFFFFFFFFFFFFFFFFFFFFF9F7FD3
:102DF0003F1F252529282828262627272727272754
:102E0000272726272727171610595A54AA995533CA
:102E100077998888996644AA999999AACCBB7766CC
:102E20007777772211222222112211222233FFFFEB
:102E3000FFFFFFFFFFFFFFFF33117788888866776A
:102E40008888778888888877778866777722AAFF46
:102E5000FFFFFFFFFFFFFFFFFFFFFFFFFFFFFFFF82
:102E6000FFFFFFFFFFFFFFFFFFFFFFFFFFFFFFFF72
:102E7000FFFFFFFFFFFFFFFFFFFFFFFFFFFFFFFF62
:102E8000FFFFFFFFFFFFFFFFFFFFFFFFDF7F7FDF92
:102E90007F1E232728282827262627272727272776
:102EA000272726271717273611766587AA665566BE
:102EB00044888888995544AA9999999999AA8877B4
:102EC0007777772211222222111111112211CCFFC2
:102ED000FFFFFFFFFFFFFFFF3322778888886677B9
:102EE000888888888888887766887766773377FFC8
:102EF000FFFFFFFFFFFFFFFFFFFFFFFFFFFFFFFFE2
:102F0000FFFFFFFFFFFFFFFFFFFFFFFFFFFFFFFFD1
:102F1000FFFFFFFFFFFFFFFFFFFFFFFFFFFFFFFFC1
:102F2000FFFFFFFFFFFFFFFFFFFFDF7F7FAFCFDF71
:102F3000BF2A232928282827262627272727272787
:102F40002727171637576776212244AA8844333338
:102F500055998888884444AA999999998877777768
:102F6000777777221122222211001111221188FF76
:102F7000FFFFFFFFFFFFFFEE22227788888866773A
:102F8000888888888888888866887766775533FF38
:102F9000FFFFFFFFFFFFFFFFFFFFFFFFFFFFFFFF41
:102FA000FFFFFFFFFFFFFFFFFFFFFFFFFFFFFFFF31
:102FB000FFFFFFFFFFFFFFFFFFFFFFFFFFFFFFFF21
:102FC000FFFFFFFFFFFFFFFFCF8F6F8FCFCFDFCF61
:102FD0009F2714292828282726272626272727271A
:102FE00017173757777777772200559966446644E5
:102FF000889988887733449988887777777777773F
:10300000777777222222222211112222221133FFE6
:10301000FFFFFFFFFFFFFFDD0033888888886677AA
:10302000888888888888888866778866776622CCCA
:10303000FFFFFFFFFFFFFFFFFFFF9F4F6F9FAFCF20
:10304000DFFFFFFFFFFFFFFFFFFFFFFFFFFFFFFFB0
:10305000FFFFFFFFFFFFFFFFFFFFFFFFFFFFFFFF80
:10306000FFFFFFFFFFFFBF7F6F9FCFCFCFCF8F6FE0
:103070009F4426292828282626272727272717166A
:103080003757777777777777220055885533666695
:103090009988776677334488777777777777777704
:1030A000777777221122222222222222222211BB8A
:1030B000FFFFFFFFFFFFFFCC00338888888866880A
:1030C000888888888888888877778866777722884C
:1030D000FFFFFFFFFFFFFFFFFFFFFFCF7F3F4F6FB0
:1030E0007F7F7F8F9FBFDFFFFFFFFFFFFFFFFFFFA0
:1030F000FFFFFFFFFFFFFFFFFFFFFFFFFFFFFFFFE0
:10310000FFFFEFAF8F6F7FAFCFCFCFCFAF6F8FEF1F
:10311000DC4358181828272627272727271737572B
:103120007777777777664422225577884455998850
:1031300077776677772255AA887777777777777763
:10314000777766112222222222222222222211773E
:10315000FFFFFFFFFFFFFFAA00448888888866887A
:1031600088888888888888887766887766774455CD
:10317000FFFFFFFFFFFFFFFF5F7F9FBFDFCFAF8F2F
:103180008F9F9F6F5F5F5F5F6F7F8FAFCFEFFFFF9F
:10319000FFFFFFFFFFFFFFFFFFFFFFFFFFFFDFAFAF
:1031A0008F7F7F7F9FCFDFCFCFCFAF6F7FCFFFFFEF
:1031B00099339958181827262727271727477777ED
:1031C000776655443333446699AA888833557766C1
:1031D00066667777441177999999888877777777B2
:1031E00077886611222222222222222222221122E2
:1031F000EEFFFFFFFFFFFF990044888888887788EB
:10320000888888888888888877668877667755333D
:10321000EFFFFFFFFFFFFFFF6F7F6F5F5F6F7F6F4E
:103220003F1F4F6F7F8F8F8F8F7F6F5F5F5F6F7FCE
:103230008FAFBFDFFFFFFFDFCFAF9F8F7F7F7F8F1E
:10324000AFDFDFCFCFCFDFCF8F6F7FBFFFFFFFFFBE
:10325000665599986838161617171737577677777F
:10326000776633227799AAAA999978773355777731
:103270006677774411669999BB999999887777779A
:103280007788551122222222222222222222220063
:1032900099FFFFFFFFFFFF770055888888887788B0
:1032A000888888888888888888668877667766119D
:1032B000BBFFFFFFFFFFFFFF8F8F8F8F8F8F8F7FF2
:1032C0007F6F5F5F5F5F4F4F4F5F5F5F5F5F5F4F1E
:1032D0003F2F3F3F2F6F7F7F7F8F9FBFCFEFFFFF3E
:1032E000FFFFEFCFCFAF8F7F8FCFFFFFFFFFFFFF3E
:1032F000337799889888463627375777777777775F
:103300007766441188AA9999999988883355777670
:103310007777551166AA99CCFFEEAA8899997777A5
:1033200077884411222222222222222222222211C2
:1033300044FFFFFFFFFFFF55006688888888888864
:1033400088887788888888888866778866777722EB
:1033500088FFFFFFFFFFFFFF8F8F8F8F8F8F8F8F74
:103360008F8F9F9F9F9F8F8F8F8F7F7F7F7F7F7F8D
:103370008F8F8F7F9FCFEFFFFFFFFFEFEFEFEFEF1D
:10338000FFEFAF6F6F9FCFEFFFFFFFFFFFFFFFCCA0
:1033900033888888888876776776777767777766DF
:1033A0007777551155AA9999999999AA445577779C
:1033B0007766115599998899AADDEEAA8899887738
:1033C0007788441122222222222222222222222211
:1033D00011BBFFFFFFFFFF3311778888888888883B
:1033E000888877888888888888667788666677443A
:1033F00055FFFFFFFFFFFFFF8F8F8F8F8F8F8F8F07
:103400008F8F8F8F8F8F8F8F8F8F8F8F8F8F9F8FBC
:103410006F4F6FCFFFEFEFEFEFEFEFEFFFFFDFAF9C
:103420008F7F8FBFFFFFFFFFFFFFFFFFFFFFFF99B2
:10343000339988888877667777767767677777773D
:103440007777552222999999999999AA444477773F
:1034500066224499999988778888BBDDAA999988CA
:10346000777733112222222222333333222222225F
:103470001155FFFFFFFFEE11227788888888888822
:103480008888777788888888887766887776775578
:1034900022EEFFFFFFFFFFFF8F8F8F8F8F8F8F8FAA
:1034A0008F8F8F8F8F8F8F8F8F8F8F9F8F7F6F4F8C
:1034B0005F7F8FAFDFEFEFFFFFEFDFBF8F7F7F8F8C
:1034C000BFEFFFFFFFFFFFFFFFFFFFFFFFFFFF66F5
:1034D000559988888877666666777777777777777C
:1034E000663311331166AA99999999AA444477775A
:1034F000331155999999998877777799BBAA9999B2
:103500008877222222222244445544442222222225
:103510002211CCFFFFFFCC00337788888888888809
:1035200088887777888888888877667777667766E7
:1035300011CCFFFFFFFFFFFF5F5F6F6F7F7F7F8F0C
:103540008F8F8F8F8F8F8F8F8F8F6F5F4F5F5F7F8B
:103550008F8F8F8FAFCFAF9F7F7F7F8FAFDFFFFFCB
:10356000FFFFFFFFFFFFFFFFFFFFFFFFFFFFFF4426
:1035700066998888887766777766777777667755EC
:1035800022664422333399999999774411447733C9
:1035900022332255999999997777777777889999EE
:1035A0009977112222223355335544443322222263
:1035B000221166FFFFFFAA004488888888888888CF
:1035C0008888776688888888887766777766777747
:1035D0002299FFFFFFFFFFFF9F8F8F7F7F6F6F6F2E
:1035E0006F5F5F5F5F6F6F3F4F4F5F6F7F8F9F8F2B
:1035F0008F8F8F6F4F7F8FAFCFEFFFFFFFFFFFFFEB
:10360000FFFFFFFFFFFFFFFFFFFFFFFFFFFFEE33A7
:10361000888888888877668877667776776677552A
:1036200011888811332266AA884422332244551116
:1036300044443322669999998877777777777788A2
:10364000AA771122222222443355445533222222C2
:10365000222211CCFFFF88005588888888888888B6
:1036600088888866778888888877667777666677B7
:103670003366FFFFFFFFFFFFFFFFFFFFFFFFFFFFBF
:10368000FFFFFFFFEFAF6F4F7F8F9F8F8F8F8F8F6A
:103690008F7F5F7FBFFFFFFFFFFFFFFFFFFFFFFF8A
:1036A000FFFFFFFFFFFFFFFFFFFFFFFFFFFFBB224B
:1036B0009988888888777788776677777777777734
:1036C0002244AA4411333355222233443322223375
:1036D0005555443333889999998888999988888869
:1036E000AA66112222222233334444444422222255
:1036F00022221166FFFF551166888888888888888D
:103700008888886677888888887766777766667716
:103710005533FFFFFFFFFFFFFFFFFFFFFFFFFFFF2F
:10372000FFFFEFAF6F5F7F8F8F8F8F8F8F8F8F6FC9
:103730005F6FBFFFFFFFFFFFFFFFFFFFFFFFFFFF09
:10374000FFFFFFFFFFFFFFFFFFFFFFFFFFFF9933BB
:103750009988888888778888667777777777777782
:1037600055118899333333113333222233113344C3
:103770005555554433449999999999999999999995
:10378000AA551122222222333333444455222222C5
:1037900022222211CCFF4422778888888888888852
:1037A0008888886677888888888866777766777754
:1037B0006622EEFFFFFFFFFFFFFFFFFFFFFFFFFFA0
:1037C000CF6F5F6F7F8F8F8F8F8F8F8F8F6F5F8F99
:1037D000CFFFFFFFFFFFFFFFFFFFFFFFFFFFFFFF29
:1037E000FFFFFFFFFFFFFFFFFFFFFFFFFFFF77442C
:1037F0009988888888778888666667767777777704
:1038000077333388552233333333333333334444BC
:10381000444444444422779999999999999999AA49
:103820009944112222222233333355335533222235
:103830002222221166FF3333778888888888888817
:1038400088888877668888888888667777667777B3
:103850007722BBFFFFFFFFFFFFFFFFFFFFFFFFFF21
:103860006F5F8F8F8F8F8F8F8F8F8F6F5F8FDFFF48
:10387000FFFFFFFFFFFFFFFFFFFFFFFFFFFFFFFF58
:10388000FFFFFFFFFFFFFFFFFFFFFFFFFFFF55668B
:103890009988668888888877667777777777777763
:1038A0007766223344112222223333334444444482
:1038B000444444444433449999999999AA99775531
:1038C000441122222222224433224433443322222E
:1038D0002222221122BB1144778888888888888810
:1038E0008888887766778888888866777766777724
:1038F000772299FFFFFFFFFFFFFFFFFFFFFFFFFFA3
:103900009F5F8F8F8F8F8F8F8F6F5F7FDFFFFFFFA7
:10391000FFFFFFFFFFFFFFFFFFFFFFFFFFFFFFFFB7
:10392000FFFFFFFFFFFFFFFFFFFFFFFFFFFF4477EA
:1039300099665599888888776677777777777777E4
:10394000777755221122222222222233222222227A
:10395000223333444444335599AA99666644333339
:10396000331122222222223333224444443322229E
:103970002222222222771155888888888888888880
:103980008888887766778888888866667766777794
:10399000773377FFFFFFFFFFFFFFFFFFFFFFFFFF13
:1039A000CF5F8F8F8F8F8F6F5F7FCFFFFFFFFFFF07
:1039B000FFFFFFFFFFFFFFFFFFFFFFFFFFFFFFFF17
:1039C000FFFFFFFFFFFFFFFFFFFFFFFFFFEE33885B
:1039D0009933779988888877667777777777777755
:1039E00077776611227777222244332222113355CA
:1039F00044222233444444335555333333444455ED
:103A000044112222222222333322444444332222EC
:103A100022222222224422778888888888888888DF
:103A20008888887766668888888866667766777704
:103A3000774455FFFFFFFFFFFFFFFFFFFFFFFFFF83
:103A4000FF6F8F8F8F6F5F7FCFFFFFFFFFFFFFFF46
:103A5000FFFFFFFFFFFFFFFFFFFFFFFFFFFFFFFF76
:103A6000FFFFFFFFFFFFFFFFFFFFFFFFFFDD2299CB
:103A700066339988888888776677777777777777D6
:103A8000777777442288AA6622224422222233664C
:103A9000552222222222223322334433222222336D
:103AA000221122222222223344224444444422224C
:103AB000222222223322337788888888888888883F
:103AC0008888887766667788888866667777777764
:103AD000775533FFFFFFFFFFFFFFFFFFFFFFFFFFF4
:103AE000FF9F7F6F5F7FCFFFFFFFFFFFFFFFFFFFA6
:103AF000FFFFFFFFFFFFFFFFFFFFFFFFFFFFFFFFD6
:103B0000FFFFFFFFFFFFFFFFFFFFFFFFFFBB33993B
:103B10002255998888888877667777777777777757
:103B200077777777333399AA77332211222222339A
:103B300022222222222244554422221122222222FF
:103B400022112222222222334422444444442222AB
:103B5000222222114422548888888888888888886C
:103B600088888877666677888888666677666677E5
:103B7000776622EEFFFFFFFFFFFFFFFFFFFFFFFF64
:103B8000FFAF4F7FCFFFFFFFFFFFFFFFFFFFFFFFF5
:103B9000FFFFFFFFFFFFFFFFFFFFFFFFFFFFFFFF35
:103BA000FFFFFFFFFFFFFFFFFFFFFFFFFFAA4466CE
:103BB00011779988888888776677777777777777A6
:103BC000777766776633448866552211222222333E
:103BD000222222222222445533113322222222225F
:103BE000221122222222223333223355444433220B
:103BF0002222113388115588888888888888888887
:103C00008888887766667788888866667766557755
:103C1000776622DDFFFFFFFFFFFFFFFFFFFFFFFFD4
:103C2000FFFFDFFFFFFFFFFFFFFFFFFFFFFFFFFFC4
:103C3000FFFFFFFFFFFFFFFFFFFFFFFFFFFFFFFF94
:103C4000FFFFFFFFFFFFFFFFFFFFFFFFFF99443470
:103C500022998888888888776677777777777777E3
:103C60006677776677663333553311333311113303
:103C70003322222222222222221133331122222213
:103C800022111122222222222233333333222222F2
:103C9000221111BB9911668888888888888888884D
:103CA00088888877667766888888666666774455E8
:103CB000777722BBFFFFFFFFFFFFFFFFFFFFFFFF45
:103CC000FFFFFFFFFFFFFFFFFFFFFFFFFFFFFFFF04
:103CD000FFFFFFFFFFFFFFFFFFFFFFFFFFFFFFFFF4
:103CE000FFFFFFFFFFFFFFFFFFFFFFFFFF88222215
:103CF0005599888888888877667777777777777710
:103D0000666677777777774433113377886644220E
:103D10001111222222222222333322332222224450
:103D200077661111222222222222222222222222FC
:103D3000111188FF44227799888888888888888824
:103D40008888887766776677998866777777553336
:103D5000777722BBFFFFFFFFFFFFFFFFFFFFFFFFA4
:103D6000FFFFFFFFFFFFFFFFFFFFFFFFFFFFFFFF63
:103D7000FFFFFFFFFFFFFFFFFFFFFFFFFFFFFFFF53
:103D8000FFFFFFFFFFFFFFFFFFFFFFFFFF88004474
:103D9000769988888888887766777777777777774E
:103DA000777766776666777744003388999999883C
:103DB00055442222112222111111113333112244B0
:103DC00077AA7722111122222222222222221111E5
:103DD0004444AAEE11448888777788888888888840
:103DE0008888887766776677998866777777772285
:103DF000557822AAFFFFFFFFFFFFFFFFFFFFFFFF36
:103E0000FFFFFFFFFFFFFFFFFFFFFFFFFFFFFFFFC2
:103E1000FFFFFFFFFFFFFFFFFFFFFFFFFFFFFFFFB2
:103E2000FFFFFFFFFFFFFFFFFFFFFFFFFF881166A0
:103E300077998888887788776677777777777777BD
:103E4000777777777777777744226644668899998A
:103E50009999663311334444445555224422113311
:103E60006677554455112211111111111122443355
:103E7000DD8899BB116688776688888888888888F5
:103E800088888877667766778888666677777744E4
:103E9000227733AAFFFFFFFFFFFFFFFFFFFFFFFFB8
:103EA000FFFFFFFFFFFFFFFFFFFFFFFFFFFFFFFF22
:103EB000FFFFFFFFFFFFFFFFFFFFFFFFFFFFFFFF12
:103EC000FFFFFFFFFFFFFFFFFFFFFFFFFF775588AB
:103ED000778888887777997766777777777777772E
:103EE00077777777777777774433FFCC44225577A6
:103EF0009999662222779999999999443355111184
:103F0000223377DD9966BB331156661133BBDD2250
:103F10006633AA7722777777778888888888888831
:103F20008888887766776666888866777766775543
:103F300011663399FFFFFFFFFFFFFFFFFFFFFFFF4A
:103F4000FFFFFFFFFFFFFFFFFFFFFFFFFFFFFFFF81
:103F5000FFFFFFFFFFFFFFFFFFFFFFFFFFFFFFFF71
:103F6000FFFFFFFFFFFFFFFFFFFFFFFFFF777777F9
:103F7000888888887777997766777777777777777C
:103F800077777777777777774422FFFF775588338E
:103F9000334433223377999999999988224433117C
:103FA00077EEFFFF8855AA2255FFEE3354FFDD441C
:103FB0007788DD334477554477888888888888886F
:103FC0008888887766777766888866777766776681
:103FD00011333399FFFFFFFFFFFFFFFFFFFFFFFFDD
:103FE000FFFFFFFFFFFFFFFFFFFFFFFFFFFFFFFFE1
:103FF000FFFFFFFFFFFFFFFFFFFFFFFFFFFFFFFFD1
:10400000FFFFFFFFFFFFFFFFFFFFFFFFFF88885558
:1040100088888888777799776666777777777777EC
:1040200077777777777777774422FFFF6688FFDDAA
:10403000AA774400226677666655444433221111FC
:10404000338899883311221155DD995555AA558821
:10405000FFFFCC2266441122778888888888888868
:1040600088888866667777668888667777777777CF
:10407000332233AAFFFFFFFFFFFFFFFFFFFFFFFF1A
:10408000FFFFFFFFFFFFFFFFFFFFFFFFFFFFFFFF40
:10409000FFFFFFFFFFFFFFFFFFFFFFFFFFFFFFFF30
:1040A000FFFFFFFFFFFFFFFFFFFFFFFFFFCCAA4463
:1040B000998888887777997766777777777777772A
:1040C00077777777777777774422FFFF6644BBBBB4
:1040D000DDEECC6644332277882277CCEEEE88552D
:1040E0001100001111111211335555CCAA5555DD8F
:1040F000FFFF7711228866227788888888888888D9
:104100008888886677777766777766667777777750
:10411000552211AAFFFFFFFFFFFFFFFFFFFFFFFF79
:10412000FFFFFFFFFFFFFFFFFFFFFFFFFFFFFFFF9F
:10413000FFFFFFFFFFFFFFFFFFFFFFFFFFFFFFFF8F
:10414000FFFFFFFFFFFFFFFFFFFFFFFFFFFFCC337E
:10415000998888887777888866667777777777779A
:1041600077777777776666773344FFFF6611445534
:1041700066777767665555FFFF7755AAAABBAA8869
:104180005555553322222222AABBEEFFFFFFFFFF27
:10419000FFFF330088FF66227788888888888888B0
:1041A00088888866777777667777666677777777B0
:1041B000555500AAFFFFFFFFFFFFFFFFFFFFFFFFB7
:1041C000FFFFFFFFFFFFFFFFFFFFFFFFFFFFFFFFFF
:1041D000FFFFFFFFFFFFFFFFFFFFFFFFFFFFFFFFEF
:1041E000FFFFFFFFFFFFFFFFFFFFFFFFFFFFBB2200
:1041F000998888887766888866667777667766772D
:1042000077667777777766772266FFFF77002233C6
:1042100044443333222222EEFF990044556655442C
:104220005544222222222211BBFFFFFFFFFFFFFF86
:10423000FFBB0088FFFF5522778888888888888898
:104240008888776677777766777766777777767710
:1042500055773399FFFFFFFFFFFFFFFFFFFFFFFFD2
:10426000FFFFFFFFFFFFFFFFFFFFFFFFFFFFFFFF5E
:10427000FFFFFFFFFFFFFFFFFFFFFFFFFFFFFFFF4E
:10428000FFFFFFFFFFFFFFFFFFFFFFFFFFFFBB225F
:104290009988888877668888776677777777777759
:1042A00077777777777777771199FFFF77112222E2
:1042B00011112222222222EEFFCC0022333333229C
:1042C000111122222222220099FFFFFFFFFFFFFF90
:1042D000FF7744FFFFFF4422778888888888888892
:1042E0008888776677667766777766777777777780
:1042F00066775599FFFFFFFFFFFFFFFFFFFFFFFFFF
:10430000FFFFFFFFFFFFFFFFFFFFFFFFFFFFFFFFBD
:10431000FFFFFFFFFFFFFFFFFFFFFFFFFFFFFFFFAD
:10432000FFFFFFFFFFFFFFFFFFFFFFFFFFFFBB22BE
:1043300088888888776677997766777766777777DA
:10434000777777777777776611DCFFFF771122220F
:1043500022222222223322CCFFEE222233222222C8
:10436000222222222222221177FFFFFFFFFFFFFFDE
:10437000EE66DDFFFFFF442277888888888888887A
:1043800088887766777777777777667777777777BD
:1043900066667788FFFFFFFFFFFFFFFFFFFFFFFF5E
:1043A000FFFFFFFFFFFFFFFFFFFFFFFFFFFFFFFF1D
:1043B000FFFFFFFFFFFFFFFFFFFFFFFFFFFFFFFF0D
:1043C000FFFFFFFFFFFFFFFFFFFFFFFFFFFFCC220D
:1043D0008888888877667799886677776677777729
:1043E000777777777777774444FFFFFF771122223B
:1043F00022222222223311BBFFFF442233333322F5
:10440000222222222222221155FFFFFFFFFFFFFF5F
:10441000EEDDFFFFFFFF4433777788888888888840
:10442000888866667777776677777777777777772D
:1044300066448899FFFFFFFFFFFFFFFFFFFFFFFFBD
:10444000FFFFFFFFFFFFFFFFFFFFFFFFFFFFFFFF7C
:10445000FFFFFFFFFFFFFFFFFFFFFFFFFFFFFFFF6C
:10446000FFFFFFFFFFFFFFFFFFFFFFFFFFFFDD225B
:104470007788888877667788886688776677777799
:10448000777777777777771199FFFFFF8811222267
:104490002222222222331199FFFF66113333332265
:1044A000222222222222221144FFFFFFFFFFFFFFD0
:1044B000FFFFFFFFFFFF552277778888888888886D
:1044C000888866666677777777777777777777768E
:1044D0007733BBCCFFFFFFFFFFFFFFFFFFFFFFFFB7
:1044E000FFFFFFFFFFFFFFFFFFFFFFFFFFFFFFFFDC
:1044F000FFFFFFFFFFFFFFFFFFFFFFFFFFFFFFFFCC
:10450000FFFFFFFFFFFFFFFFFFFFFFFFFFFFFF4476
:104510005588888877666688997788886666777709
:104520007777776677774422EEFFFFFF88112222A4
:104530002222222222331177FFFF771133333322D5
:10454000222222222222221133FFFFFFFFFFFFFF40
:10455000FFFFFFFFFFFF66227777888888888888BB
:1045600088776677777777777777776777777777EB
:104570007722CDFFFFFFFFFFFFFFFFFFFFFFFFFFE2
:10458000FFFFFFFFFFFFFFFFFFFFFFFFFFFFFFFF3B
:10459000FFFFFFFFFFFFFFFFFFFFFFFFFFFFFFFF2B
:1045A000FFFFFFFFFFFFFFFFFFFFFFFFFFFFFF66B4
:1045B000338888887766667799777788776677779C
:1045C0007777777777551199FFFFFFFF99112222AF
:1045D0002222222222332266FFFF88113333332224
:1045E000222222222222222233FFFFFFFFFFFFFF8F
:1045F000FFFFFFFFFFFF771177667788888888883D
:10460000887766777777777777777777777777773A
:104610007722DDFFFFFFFFFFFFFFFFFFFFFFFFFF31
:10462000FFFFFFFFFFFFFFFFFFFFFFFFFFFFFFFF9A
:10463000FFFFFFFFFFFFFFFFFFFFFFFFFFFFFFFF8A
:10464000FFFFFFFFFFFFFFFFFFFFFFFFFFFFFFAACF
:10465000227788888866666688887799776677770C
:1046600066777777661166FFFFFFFFFF99112222B9
:104670002222222222332255FFFF99003333332294
:10468000222222222222222233FFFFFFFFFFFFFFEE
:10469000FFFFFFFFFFFFAA1166667788888888887A
:1046A00088666677777766777777777776777777BD
:1046B0006622CDFFFFFFFFFFFFFFFFFFFFFFFFFFB2
:1046C000FFFFFFFFFFFFFFFFFFFFFFFFFFFFFFFFFA
:1046D000FFFFFFFFFFFFFFFFFFFFFFFFFFFFFFFFEA
:1046E000FFFFFFFFFFFFFFFFFFFFFFFFFFFFFFEEEB
:1046F000336688888866666677888888887766776C
:10470000666677772233EEFFFFFFFFFFAA112222B2
:104710002222222222332244FFFFAA1133333322E2
:10472000222222222222222233FFFFFFFFFFFFFF4D
:10473000FFFFFFFFFFFFDD115577778888888888A6
:1047400088667777777777777777777777777777F9
:104750006622DDFFFFFFFFFFFFFFFFFFFFFFFFFF01
:10476000FFFFFFFFFFFFFFFFFFFFFFFFFFFFFFFF59
:10477000FFFFFFFFFFFFFFFFFFFFFFFFFFFFFFFF49
:10478000FFFFFFFFFFFFFFFFFFFFFFFFFFFFFFFF39
:1047900055447788887766666688888888776677DC
:1047A0007777773311CCFFFFFFFFFFFFBB1122228A
:1047B0002222222222332233FFFFAA113333332253
:1047C000222222222222222233FFFFFFFFFFFFFFAD
:1047D000FFFFFFFFFFFFFF552277667788888888F5
:1047E000776677777777777777767777777777776B
:1047F0006622EEFFFFFFFFFFFFFFFFFFFFFFFFFF50
:10480000FFFFFFFFFFFFFFFFFFFFFFFFFFFFFFFFB8
:10481000FFFFFFFFFFFFFFFFFFFFFFFFFFFFFFFFA8
:10482000FFFFFFFFFFFFFFFFFFFFFFFFFFFFFFFF98
:10483000AA2277889977667666778888777766661A
:1048400077774411AAFFFFFFFFFFFFFFCC11222261
:104850002222222222333322DDFFBB1133332222D4
:10486000222222222222332233FFFFFFFFFFFFFFFB
:10487000FFFFFFFFFFFFFFAA116677778888888810
:1048800077667777777777777777777777777777C9
:104890005533FFFFFFFFFFFFFFFFFFFFFFFFFFFF9E
:1048A000FFFFFFFFFFFFFFFFFFFFFFFFFFFFFFFF18
:1048B000FFFFFFFFFFFFFFFFFFFFFFFFFFFFFFFF08
:1048C000FFFFFFFFFFFFFFFFFFFFFFFFFFFFFFFFF8
:1048D000EE33557788776666776677887777777768
:1048E000774422AAFFFFFFFFFFFFFFFFDD22222206
:1048F0002222222222223311CCFFBB113333222267
:10490000222222222222332244FFFFFFFFFFFFFF49
:10491000FFFFFFFFFFFFFFFF33337766888888883C
:104920007766777777777777677777777777777738
:104930003366FFFFFFFFFFFFFFFFFFFFFFFFFFFFEC
:10494000FFFFFFFFFFFFFFFFFFFFFFFFFFFFFFFF77
:10495000FFFFFFFFFFFFFFFFFFFFFFFFFFFFFFFF67
:10496000FFFFFFFFFFFFFFFFFFFFFFFFFFFFFFFF57
:10497000FF992266778877667766667777777777A5
:104980005522BBFFFFFFFFFFFFFFFFFFEE222222AA
:104990002222222222223311AAFFAA1133332222F9
:1049A000222222222222331144FFFFFFFFFFFFFFBA
:1049B000FFFFFFFFFFFFFFFFAA005577778888887A
:1049C0007766777777777777777777777777777788
:1049D0002299FFFFFFFFFFFFFFFFFFFFFFFFFFFF2A
:1049E000FFFFFFFFFFFFFFFFFFFFFFFFFFFFFFFFD7
:1049F000FFFFFFFFFFFFFFFFFFFFFFFFFFFFFFFFC7
:104A0000FFFFFFFFFFFFFFFFFFFFFFFFFFFFFFFFB6
:104A1000FFFF4444778888666777776677777755AE
:104A20001199FFFFFFFFFFFFFFFFFFFFFF33222270
:104A3000222222222222331188FFAA11333322227A
:104A4000222222223333331155FFFFFFFFFFFFFFE6
:104A5000FFFFFFFFFFFFFFFFFF5511557788888895
:104A600077667777777777777777777777777766F8
:104A700022CCFFFFFFFFFFFFFFFFFFFFFFFFFFFF56
:104A8000FFFFFFFFFFFFFFFFFFFFFFFFFFFFFFFF36
:104A9000FFFFFFFFFFFFFFFFFFFFFFFFFFFFFFFF26
:104AA000FFFFFFFFFFFFFFFFFFFFFFFFFFFFFFFF16
:104AB000FFFFBB2266778877667777776677661120
:104AC00044FFFFFFFFFFFFFFFFFFFFFFFF44112237
:104AD000222222222222331166FF9911332222221E
:104AE000222222223333221166FFFFFFFFFFFFFF46
:104AF000FFFFFFFFFFFFFFFFFFEE441155778888A0
:104B0000776677777777777777777777777677447A
:104B100044FFFFFFFFFFFFFFFFFFFFFFFFFFFFFF60
:104B2000FFFFFFFFFFFFFFFFFFFFFFFFFFFFFFFF95
:104B3000FFFFFFFFFFFFFFFFFFFFFFFFFFFFFFFF85
:104B4000FFFFFFFFFFFFFFFFFFFFFFFFFFFFFFFF75
:104B5000FFFFFF772266777777667777777744006E
:104B6000BBFFFFFFFFFFFFFFFFFFFFFFFF661122FD
:104B7000222222222222332244FF8811332222229F
:104B8000222222222222331188FFFFFFFFFFFFFF94
:104B9000FFFFFFFFFFFFFFFFFFFFDD221166889988
:104BA00077667777777777777777777777777722FB
:104BB00099FFFFFFFFFFFFFFFFFFFFFFFFFFFFFF6B
:104BC000FFFFFFFFFFFFFFFFFFFFFFFFFFFFFFFFF5
:104BD000FFFFFFFFFFFFFFFFFFFFFFFFFFFFFFFFE5
:104BE000FFFFFFFFFFFFFFFFFFFFFFFFFFFFFFFFD5
:104BF000FFFFFFFF55447766776677777766115535
:104C0000FFFFFFFFFFFFFFFFFFFFFFFFFF991122E5
:104C1000222222222222222222FF77112222222253
:104C20002222222222222211AAFFFFFFFFFFFFFFE2
:104C3000FFFFFFFFFFFFFFFFFFFFFFDD333377883D
:104C4000776677777777777777777777777755227C
:104C5000EEFFFFFFFFFFFFFF000102030405060751
:104C600008090A0B0C0D0E0F0001020304050607CC
:104C700008090A0B0C0D0E0F0001020304050607BC
:104C800008090A0B0C0D0E0F0001020304050607AC
:104C900008090A0B0C0D0E0F00010203040506079C
:104CA00008090A0B0C0D0E0F00010203040506078C
:104CB00008090A0B0C0D0E0F00010203040506077C
:104CC00008090A0B0C0D0E0F00010203040506076C
:104CD00008090A0B0C0D0E0F00010203040506075C
:104CE00008090A0B0C0D0E0F00010203040506074C
:104CF00008090A0B0C0D0E0F000000000000000058
:104D000000000000000000000000000000000000A3
:104D10000000000000000000000000000000000093
:104D20000000000000000000000000000000000083
:104D300000FF0000000000FF0000000000FF000076
:104D4000000000FF00000000000000000000000064
:104D50000000000000FF0000000000000000000054
:104D6000000000000000FF00FF000000FF00FF0047
:104D70000000FF00FF000000000000000000000035
:104D80000000000000000000000000000000000023
:104D9000000000000000000000000000FF00FF0015
:104DA0000000FF00FF0000FFFFFFFFFF0000FF000B
:104DB000FF0000FFFFFFFFFF0000FF00FF000000FB
:104DC000FF00FF00000000000000000000000000E5
:104DD000000000FF00000000FFFFFFFF00FF00FFDA
:104DE00000000000FFFFFF00000000FF00FF00FFC9
:104DF000FFFFFF00000000FF0000000000000000B7
:104E000000000000000000FFFF00000000FFFF00A6
:104E100000FF00000000FF00000000FF0000000095
:104E2000FF00000000FF0000FFFF00000000FFFF88
:104E30000000000000000000000000000000FFFF74
:104E4000000000FF0000FF0000FF00FF0000000066
:104E5000FF00000000FF00FF00FF00FF0000FF0058
:104E60000000FFFF00FF0000000000000000000045
:104E70000000000000FF0000000000FF0000000034
:104E800000FF000000000000000000000000000023
:104E90000000000000000000000000000000000012
:104EA000000000000000000000000000FF00000003
:104EB00000FF00000000FF0000000000FF000000F5
:104EC0000000FF000000000000FF000000000000E4
:104ED000FF000000000000000000000000000000D3
:104EE000FF000000000000FF000000000000FF00C5
:104EF00000000000FF0000000000FF00000000FFB5
:104F000000000000FF0000000000000000000000A2
:104F10000000000000000000000000000000000091
:104F200000FF000000FF0000FF00FF0000FFFFFF88
:104F3000FFFF0000FF00FF0000FF000000FF000077
:104F40000000000000000000000000000000000061
:104F5000000000000000000000FF0000000000FF53
:104F6000000000FFFFFFFFFF000000FF0000000047
:104F700000FF000000000000000000000000000032
:104F80000000000000000000000000000000000021
:104F900000000000000000000000FF000000000012
:104FA000FF00000000FF0000000000000000000003
:104FB00000000000000000000000000000000000F1
:104FC0000000000000000000FFFFFFFFFFFF0000E7
:104FD00000000000000000000000000000000000D1
:104FE00000000000000000000000000000000000C1
:104FF00000000000000000000000000000000000B1
:1050000000000000000000FF0000000000FF0000A2
:105010000000000000000000000000000000000090
:1050200000000000000000000000000000FF000081
:105030000000FF00000000FF00000000FF00000073
:1050400000FF000000000000000000000000000061
:1050500000000000000000000000FFFFFF0000FF54
:10506000000000FF00FF0000FFFF00FF00FF00FF47
:1050700000FFFF0000FF00FF000000FF0000FFFF37
:10508000FF00000000000000000000000000000021
:1050900000FF00000000FFFF0000000000FF000014
:1050A000000000FF0000000000FF0000000000FF03
:1050B0000000000000FF00000000FFFFFF000000F4
:1050C000000000000000000000000000FFFFFF00E3
:1050D00000FF000000FF0000000000FF00000000D3
:1050E000FF00000000FF00000000FF00000000FFC4
:1050F000FFFFFFFF000000000000000000000000B4
:1051000000FFFFFFFFFF00000000FF00000000FFA6
:10511000000000000000FF000000000000FF00FF92
:10512000000000FF0000FFFFFF0000000000000083
:1051300000000000000000000000FF00000000FF71
:10514000FF000000FF00FF0000FF0000FF0000FF65
:10515000FFFFFFFF00000000FF0000000000FF0055
:1051600000000000000000000000000000FFFFFF42
:10517000FFFF00FF0000000000FFFFFFFF00000036
:10518000000000FF0000000000FF00FF000000FF23
:1051900000FFFFFFFF000000000000000000000013
:1051A0000000000000FFFF000000FF00000000FF03
:1051B0000000000000FFFFFFFF0000FF000000FFF5
:1051C00000FF000000FF0000FFFFFF0000000000E4
:1051D000000000000000000000FFFFFFFFFF0000D4
:1051E000000000FF0000000000FF00000000FF00C2
:1051F000000000FF0000000000FF0000000000FFB2
:10520000000000000000000000000000000000009E
:10521000FFFFFF0000FF000000FF00FF000000FF95
:105220000000FFFFFF0000FF000000FF00FF000084
:1052300000FF0000FFFFFF00000000000000000072
:10524000000000000000FFFFFF0000FF000000FF63
:1052500000FF000000FF0000FFFFFFFF0000000054
:1052600000FF00000000FF000000FFFFFF00000043
:10527000000000000000000000000000000000002E
:10528000000000FF0000000000FF00000000000020
:105290000000000000FF0000000000FF0000000010
:1052A00000000000000000000000000000000000FE
:1052B000000000000000000000FF0000000000FFF0
:1052C0000000000000000000000000FF00000000DF
:1052D00000FF00000000FF000000000000000000D0
:1052E00000000000000000000000FF00000000FFC0
:1052F00000000000FF00000000FF000000000000B0
:10530000FF000000000000FF000000000000FF00A0
:10531000000000000000000000000000000000008D
:10532000000000000000000000FFFFFFFFFF000082
:105330000000000000FFFFFFFFFF00000000000072
:10534000000000000000000000000000000000005D
:1053500000000000FF000000000000FF000000004F
:105360000000FF000000000000FF00000000FF0040
:10537000000000FF00000000FF000000000000002F
:1053800000000000000000000000FFFFFF0000FF21
:10539000000000FF0000000000FF00000000FF0010
:1053A000000000FF0000000000000000000000FFFF
:1053B00000000000000000000000000000000000ED
:1053C000FFFFFF0000FF000000FF0000000000FFE3
:1053D0000000FFFF00FF00FF00FF00FF00FF00FFD5
:1053E00000FF0000FFFFFF000000000000000000C1
:1053F00000000000000000FF00000000FF00FF00B0
:1054000000FF000000FF00FF000000FF00FFFFFFA3
:10541000FFFF00FF000000FF00FF000000FF000092
:105420000000000000000000000000FFFFFFFF0080
:1054300000FF000000FF00FF000000FF00FFFFFF73
:10544000FF0000FF000000FF00FF000000FF00FF62
:10545000FFFFFF000000000000000000000000004F
:105460000000FFFFFF0000FF000000FF00FF000042
:10547000000000FF0000000000FF0000000000FF2F
:10548000000000FF0000FFFFFF0000000000000020
:1054900000000000000000FFFFFF000000FF000010
:1054A000FF0000FF000000FF00FF000000FF00FF02
:1054B000000000FF00FF0000FF0000FFFFFF0000F2
:1054C00000000000000000000000000000FFFFFFDF
:1054D000FFFF00FF0000000000FF0000000000FFD1
:1054E000FFFFFF0000FF0000000000FF00000000C1
:1054F00000FFFFFFFFFF00000000000000000000B1
:10550000000000FFFFFFFFFF00FF0000000000FFA2
:105510000000000000FFFFFFFF0000FF0000000090
:1055200000FF0000000000FF00000000000000007D
:1055300000000000000000000000FFFFFF0000FF6F
:10554000000000FF00FF0000000000FF00FFFFFF61
:1055500000FF000000FF00FF000000FF0000FFFF51
:10556000FF0000000000000000000000000000FF3D
:10557000000000FF00FF000000FF00FF000000FF30
:1055800000FFFFFFFFFF00FF000000FF00FF000023
:1055900000FF00FF000000FF00000000000000000E
:1055A000000000000000FFFFFF00000000FF0000FF
:1055B000000000FF0000000000FF0000000000FFEE
:1055C0000000000000FF00000000FFFFFF000000DF
:1055D00000000000000000000000000000FFFFFFCE
:1055E00000000000FF0000000000FF0000000000BD
:1055F000FF0000000000FF0000FF0000FF000000AF
:10560000FFFF00000000000000000000000000009C
:1056100000FF000000FF00FF0000FF0000FF00FF90
:10562000000000FFFF00000000FF00FF000000FF7F
:105630000000FF0000FF000000FF0000000000006D
:1056400000000000000000FF0000000000FF00005C
:10565000000000FF0000000000FF0000000000FF4D
:105660000000000000FF0000000000FFFFFFFFFF40
:1056700000000000000000000000000000FF00002B
:1056800000FF00FFFF00FFFF00FF00FF00FF00FF23
:1056900000FF00FF00FF000000FF00FF000000FF10
:1056A00000FF000000FF00000000000000000000FC
:1056B000000000FF000000FF00FF000000FF00FFEF
:1056C000FF0000FF00FF00FF00FF00FF0000FFFFE2
:1056D00000FF000000FF00FF000000FF00000000CE
:1056E00000000000000000000000FFFFFF0000FFBE
:1056F000000000FF00FF000000FF00FF000000FFAF
:1057000000FF000000FF00FF000000FF0000FFFF9F
:10571000FF0000000000000000000000000000FF8B
:10572000FFFFFF0000FF000000FF00FF000000FF80
:1057300000FFFFFFFF0000FF0000000000FF00006F
:10574000000000FF0000000000000000000000005A
:105750000000000000FFFFFFFF0000FF000000FF4F
:1057600000FF000000FF00FF000000FF00FF00FF3F
:1057700000FF00FF0000FF0000FFFFFF00FF000030
:105780000000000000000000000000FFFFFFFF001D
:1057900000FF000000FF00FF000000FF00FFFFFF10
:1057A000FF0000FF00FF000000FF0000FF0000FFFF
:1057B000000000FF000000000000000000000000EA
:1057C0000000FFFFFFFF00FF0000000000FF0000DF
:1057D00000000000FFFFFF000000000000FF0000CD
:1057E000000000FF00FFFFFFFFFF000000000000BF
:1057F00000000000000000FFFFFFFFFF000000FFAF
:105800000000000000FF0000000000FF000000009A
:1058100000FF0000000000FF0000000000FF00008B
:1058200000000000000000000000000000FF000079
:1058300000FF00FF000000FF00FF000000FF00FF6E
:10584000000000FF00FF000000FF0000FF00FF005D
:10585000000000FF00000000000000000000000049
:10586000000000FF000000FF00FF000000FF00FF3D
:10587000000000FF00FF000000FF00FF000000FF2D
:105880000000FF00FF00000000FF0000000000001B
:10589000000000000000000000FF000000FF00FF0B
:1058A000000000FF00FF000000FF00FF00FF00FFFE
:1058B00000FF00FF00FF00FF00FF00FF0000FF00EF
:1058C000FF0000000000000000000000000000FFDA
:1058D000000000FF00FF000000FF0000FF00FF00CD
:1058E000000000FF00000000FF00FF0000FF0000BC
:1058F00000FF00FF000000FF0000000000000000AB
:105900000000000000FF000000FF00FF000000FF9B
:1059100000FF000000FF0000FF00FF00000000FF8C
:105920000000000000FF0000000000FF0000000079
:105930000000000000000000000000FFFFFFFFFF6C
:105940000000000000FF00000000FF00000000FF5A
:1059500000000000FF00000000FF0000000000FF4A
:10596000FFFFFFFF0000000000000000000000003B
:1059700000FFFFFFFF0000FF0000000000FF00002D
:10598000000000FF0000000000FF0000000000FF1A
:105990000000000000FFFFFFFF000000000000000B
:1059A00000000000000000000000000000FF0000F8
:1059B00000000000FF000000000000FF00000000E9
:1059C0000000FF000000000000FF000000000000D9
:1059D00000000000000000000000000000FFFFFFCA
:1059E000FF0000000000FF0000000000FF000000BA
:1059F0000000FF0000000000FF0000000000FF00AA
:105A000000FFFFFFFF00000000000000000000009A
:105A10000000000000FF00000000FF00FF0000FF8A
:105A2000000000FF00000000000000000000000077
:105A30000000000000000000000000000000000066
:105A40000000000000000000000000000000000056
:105A50000000000000000000000000000000000046
:105A600000000000000000000000000000FFFFFF39
:105A7000FFFF000000000000000000000000000028
:105A8000FF000000000000FF000000000000FF0019
:105A90000000000000000000000000000000000006
:105AA00000000000000000000000000000000000F6
:105AB000000000000000000000000000FFFFFF00E9
:105AC0000000000000FF0000FFFFFFFF00FF0000DC
:105AD00000FF0000FFFFFFFF0000000000000000CB
